{
  "contractName": "CasinoChip",
  "abi": [
    {
      "inputs": [
        {
          "internalType": "uint256",
          "name": "_initialsuppy",
          "type": "uint256"
        }
      ],
      "stateMutability": "nonpayable",
      "type": "constructor"
    },
    {
      "inputs": [
        {
          "internalType": "address",
          "name": "spender",
          "type": "address"
        },
        {
          "internalType": "uint256",
          "name": "allowance",
          "type": "uint256"
        },
        {
          "internalType": "uint256",
          "name": "needed",
          "type": "uint256"
        }
      ],
      "name": "ERC20InsufficientAllowance",
      "type": "error"
    },
    {
      "inputs": [
        {
          "internalType": "address",
          "name": "sender",
          "type": "address"
        },
        {
          "internalType": "uint256",
          "name": "balance",
          "type": "uint256"
        },
        {
          "internalType": "uint256",
          "name": "needed",
          "type": "uint256"
        }
      ],
      "name": "ERC20InsufficientBalance",
      "type": "error"
    },
    {
      "inputs": [
        {
          "internalType": "address",
          "name": "approver",
          "type": "address"
        }
      ],
      "name": "ERC20InvalidApprover",
      "type": "error"
    },
    {
      "inputs": [
        {
          "internalType": "address",
          "name": "receiver",
          "type": "address"
        }
      ],
      "name": "ERC20InvalidReceiver",
      "type": "error"
    },
    {
      "inputs": [
        {
          "internalType": "address",
          "name": "sender",
          "type": "address"
        }
      ],
      "name": "ERC20InvalidSender",
      "type": "error"
    },
    {
      "inputs": [
        {
          "internalType": "address",
          "name": "spender",
          "type": "address"
        }
      ],
      "name": "ERC20InvalidSpender",
      "type": "error"
    },
    {
      "anonymous": false,
      "inputs": [
        {
          "indexed": true,
          "internalType": "address",
          "name": "owner",
          "type": "address"
        },
        {
          "indexed": true,
          "internalType": "address",
          "name": "spender",
          "type": "address"
        },
        {
          "indexed": false,
          "internalType": "uint256",
          "name": "value",
          "type": "uint256"
        }
      ],
      "name": "Approval",
      "type": "event"
    },
    {
      "anonymous": false,
      "inputs": [
        {
          "indexed": true,
          "internalType": "address",
          "name": "from",
          "type": "address"
        },
        {
          "indexed": true,
          "internalType": "address",
          "name": "to",
          "type": "address"
        },
        {
          "indexed": false,
          "internalType": "uint256",
          "name": "value",
          "type": "uint256"
        }
      ],
      "name": "Transfer",
      "type": "event"
    },
    {
      "inputs": [
        {
          "internalType": "address",
          "name": "owner",
          "type": "address"
        },
        {
          "internalType": "address",
          "name": "spender",
          "type": "address"
        }
      ],
      "name": "allowance",
      "outputs": [
        {
          "internalType": "uint256",
          "name": "",
          "type": "uint256"
        }
      ],
      "stateMutability": "view",
      "type": "function"
    },
    {
      "inputs": [
        {
          "internalType": "address",
          "name": "spender",
          "type": "address"
        },
        {
          "internalType": "uint256",
          "name": "value",
          "type": "uint256"
        }
      ],
      "name": "approve",
      "outputs": [
        {
          "internalType": "bool",
          "name": "",
          "type": "bool"
        }
      ],
      "stateMutability": "nonpayable",
      "type": "function"
    },
    {
      "inputs": [
        {
          "internalType": "address",
          "name": "account",
          "type": "address"
        }
      ],
      "name": "balanceOf",
      "outputs": [
        {
          "internalType": "uint256",
          "name": "",
          "type": "uint256"
        }
      ],
      "stateMutability": "view",
      "type": "function"
    },
    {
      "inputs": [],
      "name": "decimals",
      "outputs": [
        {
          "internalType": "uint8",
          "name": "",
          "type": "uint8"
        }
      ],
      "stateMutability": "view",
      "type": "function"
    },
    {
      "inputs": [],
      "name": "name",
      "outputs": [
        {
          "internalType": "string",
          "name": "",
          "type": "string"
        }
      ],
      "stateMutability": "view",
      "type": "function"
    },
    {
      "inputs": [],
      "name": "owner",
      "outputs": [
        {
          "internalType": "address",
          "name": "",
          "type": "address"
        }
      ],
      "stateMutability": "view",
      "type": "function"
    },
    {
      "inputs": [],
      "name": "symbol",
      "outputs": [
        {
          "internalType": "string",
          "name": "",
          "type": "string"
        }
      ],
      "stateMutability": "view",
      "type": "function"
    },
    {
      "inputs": [],
      "name": "tokenPrice",
      "outputs": [
        {
          "internalType": "uint256",
          "name": "",
          "type": "uint256"
        }
      ],
      "stateMutability": "view",
      "type": "function"
    },
    {
      "inputs": [],
      "name": "totalSupply",
      "outputs": [
        {
          "internalType": "uint256",
          "name": "",
          "type": "uint256"
        }
      ],
      "stateMutability": "view",
      "type": "function"
    },
    {
      "inputs": [
        {
          "internalType": "address",
          "name": "to",
          "type": "address"
        },
        {
          "internalType": "uint256",
          "name": "value",
          "type": "uint256"
        }
      ],
      "name": "transfer",
      "outputs": [
        {
          "internalType": "bool",
          "name": "",
          "type": "bool"
        }
      ],
      "stateMutability": "nonpayable",
      "type": "function"
    },
    {
      "inputs": [
        {
          "internalType": "address",
          "name": "from",
          "type": "address"
        },
        {
          "internalType": "address",
          "name": "to",
          "type": "address"
        },
        {
          "internalType": "uint256",
          "name": "value",
          "type": "uint256"
        }
      ],
      "name": "transferFrom",
      "outputs": [
        {
          "internalType": "bool",
          "name": "",
          "type": "bool"
        }
      ],
      "stateMutability": "nonpayable",
      "type": "function"
    },
    {
      "stateMutability": "payable",
      "type": "receive"
    },
    {
      "inputs": [],
      "name": "buyTokens",
      "outputs": [],
      "stateMutability": "payable",
      "type": "function"
    },
    {
      "inputs": [
        {
          "internalType": "uint256",
          "name": "tokenAmount",
          "type": "uint256"
        }
      ],
      "name": "withdrawTokens",
      "outputs": [],
      "stateMutability": "nonpayable",
      "type": "function"
    },
    {
      "inputs": [
        {
          "internalType": "address",
          "name": "recipient",
          "type": "address"
        },
        {
          "internalType": "uint256",
          "name": "amount",
          "type": "uint256"
        }
      ],
      "name": "transferTokens",
      "outputs": [],
      "stateMutability": "nonpayable",
      "type": "function"
    },
    {
      "inputs": [],
      "name": "withdrawETH",
      "outputs": [],
      "stateMutability": "nonpayable",
      "type": "function"
    }
  ],
  "bytecode": "0x608060405234801562000010575f80fd5b506040516200217e3803806200217e83398181016040528101906200003691906200043d565b6040518060400160405280600a81526020017f436173696e6f43686970000000000000000000000000000000000000000000008152506040518060400160405280600581526020017f43434849500000000000000000000000000000000000000000000000000000008152508160039081620000b39190620006c8565b508060049081620000c59190620006c8565b5050503360055f6101000a81548173ffffffffffffffffffffffffffffffffffffffff021916908373ffffffffffffffffffffffffffffffffffffffff16021790555062000144336200011d6200014b60201b60201c565b600a6200012b919062000935565b8362000138919062000985565b6200015360201b60201c565b5062000ace565b5f6012905090565b5f73ffffffffffffffffffffffffffffffffffffffff168273ffffffffffffffffffffffffffffffffffffffff1603620001c6575f6040517fec442f05000000000000000000000000000000000000000000000000000000008152600401620001bd919062000a12565b60405180910390fd5b620001d95f8383620001dd60201b60201c565b5050565b5f73ffffffffffffffffffffffffffffffffffffffff168373ffffffffffffffffffffffffffffffffffffffff160362000231578060025f82825462000224919062000a2d565b9250508190555062000302565b5f805f8573ffffffffffffffffffffffffffffffffffffffff1673ffffffffffffffffffffffffffffffffffffffff1681526020019081526020015f2054905081811015620002bd578381836040517fe450d38c000000000000000000000000000000000000000000000000000000008152600401620002b49392919062000a78565b60405180910390fd5b8181035f808673ffffffffffffffffffffffffffffffffffffffff1673ffffffffffffffffffffffffffffffffffffffff1681526020019081526020015f2081905550505b5f73ffffffffffffffffffffffffffffffffffffffff168273ffffffffffffffffffffffffffffffffffffffff16036200034b578060025f828254039250508190555062000395565b805f808473ffffffffffffffffffffffffffffffffffffffff1673ffffffffffffffffffffffffffffffffffffffff1681526020019081526020015f205f82825401925050819055505b8173ffffffffffffffffffffffffffffffffffffffff168373ffffffffffffffffffffffffffffffffffffffff167fddf252ad1be2c89b69c2b068fc378daa952ba7f163c4a11628f55a4df523b3ef83604051620003f4919062000ab3565b60405180910390a3505050565b5f80fd5b5f819050919050565b620004198162000405565b811462000424575f80fd5b50565b5f8151905062000437816200040e565b92915050565b5f6020828403121562000455576200045462000401565b5b5f620004648482850162000427565b91505092915050565b5f81519050919050565b7f4e487b71000000000000000000000000000000000000000000000000000000005f52604160045260245ffd5b7f4e487b71000000000000000000000000000000000000000000000000000000005f52602260045260245ffd5b5f6002820490506001821680620004e957607f821691505b602082108103620004ff57620004fe620004a4565b5b50919050565b5f819050815f5260205f209050919050565b5f6020601f8301049050919050565b5f82821b905092915050565b5f60088302620005637fffffffffffffffffffffffffffffffffffffffffffffffffffffffffffffffff8262000526565b6200056f868362000526565b95508019841693508086168417925050509392505050565b5f819050919050565b5f620005b0620005aa620005a48462000405565b62000587565b62000405565b9050919050565b5f819050919050565b620005cb8362000590565b620005e3620005da82620005b7565b84845462000532565b825550505050565b5f90565b620005f9620005eb565b62000606818484620005c0565b505050565b5b818110156200062d57620006215f82620005ef565b6001810190506200060c565b5050565b601f8211156200067c57620006468162000505565b620006518462000517565b8101602085101562000661578190505b62000679620006708562000517565b8301826200060b565b50505b505050565b5f82821c905092915050565b5f6200069e5f198460080262000681565b1980831691505092915050565b5f620006b883836200068d565b9150826002028217905092915050565b620006d3826200046d565b67ffffffffffffffff811115620006ef57620006ee62000477565b5b620006fb8254620004d1565b6200070882828562000631565b5f60209050601f8311600181146200073e575f841562000729578287015190505b620007358582620006ab565b865550620007a4565b601f1984166200074e8662000505565b5f5b82811015620007775784890151825560018201915060208501945060208101905062000750565b8683101562000797578489015162000793601f8916826200068d565b8355505b6001600288020188555050505b505050505050565b7f4e487b71000000000000000000000000000000000000000000000000000000005f52601160045260245ffd5b5f8160011c9050919050565b5f808291508390505b600185111562000836578086048111156200080e576200080d620007ac565b5b60018516156200081e5780820291505b80810290506200082e85620007d9565b9450620007ee565b94509492505050565b5f8262000850576001905062000922565b816200085f575f905062000922565b81600181146200087857600281146200088357620008b9565b600191505062000922565b60ff841115620008985762000897620007ac565b5b8360020a915084821115620008b257620008b1620007ac565b5b5062000922565b5060208310610133831016604e8410600b8410161715620008f35782820a905083811115620008ed57620008ec620007ac565b5b62000922565b620009028484846001620007e5565b925090508184048111156200091c576200091b620007ac565b5b81810290505b9392505050565b5f60ff82169050919050565b5f620009418262000405565b91506200094e8362000929565b92506200097d7fffffffffffffffffffffffffffffffffffffffffffffffffffffffffffffffff84846200083f565b905092915050565b5f620009918262000405565b91506200099e8362000405565b9250828202620009ae8162000405565b91508282048414831517620009c857620009c7620007ac565b5b5092915050565b5f73ffffffffffffffffffffffffffffffffffffffff82169050919050565b5f620009fa82620009cf565b9050919050565b62000a0c81620009ee565b82525050565b5f60208201905062000a275f83018462000a01565b92915050565b5f62000a398262000405565b915062000a468362000405565b925082820190508082111562000a615762000a60620007ac565b5b92915050565b62000a728162000405565b82525050565b5f60608201905062000a8d5f83018662000a01565b62000a9c602083018562000a67565b62000aab604083018462000a67565b949350505050565b5f60208201905062000ac85f83018462000a67565b92915050565b6116a28062000adc5f395ff3fe6080604052600436106100eb575f3560e01c80637ff9b59611610089578063bec3fa1711610058578063bec3fa171461030a578063d0febe4c14610332578063dd62ed3e1461033c578063e086e5ec14610378576100f2565b80637ff9b596146102505780638da5cb5b1461027a57806395d89b41146102a4578063a9059cbb146102ce576100f2565b806323b872dd116100c557806323b872dd14610186578063313ce567146101c2578063315a095d146101ec57806370a0823114610214576100f2565b806306fdde03146100f6578063095ea7b31461012057806318160ddd1461015c576100f2565b366100f257005b5f80fd5b348015610101575f80fd5b5061010a61038e565b6040516101179190610f39565b60405180910390f35b34801561012b575f80fd5b5061014660048036038101906101419190610fea565b61041e565b6040516101539190611042565b60405180910390f35b348015610167575f80fd5b50610170610440565b60405161017d919061106a565b60405180910390f35b348015610191575f80fd5b506101ac60048036038101906101a79190611083565b610449565b6040516101b99190611042565b60405180910390f35b3480156101cd575f80fd5b506101d6610477565b6040516101e391906110ee565b60405180910390f35b3480156101f7575f80fd5b50610212600480360381019061020d9190611107565b61047f565b005b34801561021f575f80fd5b5061023a60048036038101906102359190611132565b61056d565b604051610247919061106a565b60405180910390f35b34801561025b575f80fd5b506102646105b2565b604051610271919061106a565b60405180910390f35b348015610285575f80fd5b5061028e6105bd565b60405161029b919061116c565b60405180910390f35b3480156102af575f80fd5b506102b86105e2565b6040516102c59190610f39565b60405180910390f35b3480156102d9575f80fd5b506102f460048036038101906102ef9190610fea565b610672565b6040516103019190611042565b60405180910390f35b348015610315575f80fd5b50610330600480360381019061032b9190610fea565b610694565b005b61033a6106a3565b005b348015610347575f80fd5b50610362600480360381019061035d9190611185565b6107b4565b60405161036f919061106a565b60405180910390f35b348015610383575f80fd5b5061038c610836565b005b60606003805461039d906111f0565b80601f01602080910402602001604051908101604052809291908181526020018280546103c9906111f0565b80156104145780601f106103eb57610100808354040283529160200191610414565b820191905f5260205f20905b8154815290600101906020018083116103f757829003601f168201915b5050505050905090565b5f8061042861092c565b9050610435818585610933565b600191505092915050565b5f600254905090565b5f8061045361092c565b9050610460858285610945565b61046b8585856109d7565b60019150509392505050565b5f6012905090565b806104893361056d565b10156104ca576040517f08c379a00000000000000000000000000000000000000000000000000000000081526004016104c19061126a565b60405180910390fd5b6104f63360055f9054906101000a900473ffffffffffffffffffffffffffffffffffffffff16836109d7565b3373ffffffffffffffffffffffffffffffffffffffff166108fc662386f26fc10000610520610477565b600a61052c91906113e4565b84610537919061145b565b610541919061148b565b90811502906040515f60405180830381858888f19350505050158015610569573d5f803e3d5ffd5b5050565b5f805f8373ffffffffffffffffffffffffffffffffffffffff1673ffffffffffffffffffffffffffffffffffffffff1681526020019081526020015f20549050919050565b662386f26fc1000081565b60055f9054906101000a900473ffffffffffffffffffffffffffffffffffffffff1681565b6060600480546105f1906111f0565b80601f016020809104026020016040519081016040528092919081815260200182805461061d906111f0565b80156106685780601f1061063f57610100808354040283529160200191610668565b820191905f5260205f20905b81548152906001019060200180831161064b57829003601f168201915b5050505050905090565b5f8061067c61092c565b90506106898185856109d7565b600191505092915050565b61069f3383836109d7565b5050565b5f34116106e5576040517f08c379a00000000000000000000000000000000000000000000000000000000081526004016106dc90611516565b60405180910390fd5b5f6106ee610477565b600a6106fa91906113e4565b662386f26fc100003461070d919061145b565b610717919061148b565b90508061074460055f9054906101000a900473ffffffffffffffffffffffffffffffffffffffff1661056d565b1015610785576040517f08c379a000000000000000000000000000000000000000000000000000000000815260040161077c9061157e565b60405180910390fd5b6107b160055f9054906101000a900473ffffffffffffffffffffffffffffffffffffffff1633836109d7565b50565b5f60015f8473ffffffffffffffffffffffffffffffffffffffff1673ffffffffffffffffffffffffffffffffffffffff1681526020019081526020015f205f8373ffffffffffffffffffffffffffffffffffffffff1673ffffffffffffffffffffffffffffffffffffffff1681526020019081526020015f2054905092915050565b60055f9054906101000a900473ffffffffffffffffffffffffffffffffffffffff1673ffffffffffffffffffffffffffffffffffffffff163373ffffffffffffffffffffffffffffffffffffffff16146108c5576040517f08c379a00000000000000000000000000000000000000000000000000000000081526004016108bc906115e6565b60405180910390fd5b60055f9054906101000a900473ffffffffffffffffffffffffffffffffffffffff1673ffffffffffffffffffffffffffffffffffffffff166108fc4790811502906040515f60405180830381858888f19350505050158015610929573d5f803e3d5ffd5b50565b5f33905090565b6109408383836001610ac7565b505050565b5f61095084846107b4565b90507fffffffffffffffffffffffffffffffffffffffffffffffffffffffffffffffff81146109d157818110156109c2578281836040517ffb8f41b20000000000000000000000000000000000000000000000000000000081526004016109b993929190611604565b60405180910390fd5b6109d084848484035f610ac7565b5b50505050565b5f73ffffffffffffffffffffffffffffffffffffffff168373ffffffffffffffffffffffffffffffffffffffff1603610a47575f6040517f96c6fd1e000000000000000000000000000000000000000000000000000000008152600401610a3e919061116c565b60405180910390fd5b5f73ffffffffffffffffffffffffffffffffffffffff168273ffffffffffffffffffffffffffffffffffffffff1603610ab7575f6040517fec442f05000000000000000000000000000000000000000000000000000000008152600401610aae919061116c565b60405180910390fd5b610ac2838383610c96565b505050565b5f73ffffffffffffffffffffffffffffffffffffffff168473ffffffffffffffffffffffffffffffffffffffff1603610b37575f6040517fe602df05000000000000000000000000000000000000000000000000000000008152600401610b2e919061116c565b60405180910390fd5b5f73ffffffffffffffffffffffffffffffffffffffff168373ffffffffffffffffffffffffffffffffffffffff1603610ba7575f6040517f94280d62000000000000000000000000000000000000000000000000000000008152600401610b9e919061116c565b60405180910390fd5b8160015f8673ffffffffffffffffffffffffffffffffffffffff1673ffffffffffffffffffffffffffffffffffffffff1681526020019081526020015f205f8573ffffffffffffffffffffffffffffffffffffffff1673ffffffffffffffffffffffffffffffffffffffff1681526020019081526020015f20819055508015610c90578273ffffffffffffffffffffffffffffffffffffffff168473ffffffffffffffffffffffffffffffffffffffff167f8c5be1e5ebec7d5bd14f71427d1e84f3dd0314c0f7b2291e5b200ac8c7c3b92584604051610c87919061106a565b60405180910390a35b50505050565b5f73ffffffffffffffffffffffffffffffffffffffff168373ffffffffffffffffffffffffffffffffffffffff1603610ce6578060025f828254610cda9190611639565b92505081905550610db4565b5f805f8573ffffffffffffffffffffffffffffffffffffffff1673ffffffffffffffffffffffffffffffffffffffff1681526020019081526020015f2054905081811015610d6f578381836040517fe450d38c000000000000000000000000000000000000000000000000000000008152600401610d6693929190611604565b60405180910390fd5b8181035f808673ffffffffffffffffffffffffffffffffffffffff1673ffffffffffffffffffffffffffffffffffffffff1681526020019081526020015f2081905550505b5f73ffffffffffffffffffffffffffffffffffffffff168273ffffffffffffffffffffffffffffffffffffffff1603610dfb578060025f8282540392505081905550610e45565b805f808473ffffffffffffffffffffffffffffffffffffffff1673ffffffffffffffffffffffffffffffffffffffff1681526020019081526020015f205f82825401925050819055505b8173ffffffffffffffffffffffffffffffffffffffff168373ffffffffffffffffffffffffffffffffffffffff167fddf252ad1be2c89b69c2b068fc378daa952ba7f163c4a11628f55a4df523b3ef83604051610ea2919061106a565b60405180910390a3505050565b5f81519050919050565b5f82825260208201905092915050565b5f5b83811015610ee6578082015181840152602081019050610ecb565b5f8484015250505050565b5f601f19601f8301169050919050565b5f610f0b82610eaf565b610f158185610eb9565b9350610f25818560208601610ec9565b610f2e81610ef1565b840191505092915050565b5f6020820190508181035f830152610f518184610f01565b905092915050565b5f80fd5b5f73ffffffffffffffffffffffffffffffffffffffff82169050919050565b5f610f8682610f5d565b9050919050565b610f9681610f7c565b8114610fa0575f80fd5b50565b5f81359050610fb181610f8d565b92915050565b5f819050919050565b610fc981610fb7565b8114610fd3575f80fd5b50565b5f81359050610fe481610fc0565b92915050565b5f806040838503121561100057610fff610f59565b5b5f61100d85828601610fa3565b925050602061101e85828601610fd6565b9150509250929050565b5f8115159050919050565b61103c81611028565b82525050565b5f6020820190506110555f830184611033565b92915050565b61106481610fb7565b82525050565b5f60208201905061107d5f83018461105b565b92915050565b5f805f6060848603121561109a57611099610f59565b5b5f6110a786828701610fa3565b93505060206110b886828701610fa3565b92505060406110c986828701610fd6565b9150509250925092565b5f60ff82169050919050565b6110e8816110d3565b82525050565b5f6020820190506111015f8301846110df565b92915050565b5f6020828403121561111c5761111b610f59565b5b5f61112984828501610fd6565b91505092915050565b5f6020828403121561114757611146610f59565b5b5f61115484828501610fa3565b91505092915050565b61116681610f7c565b82525050565b5f60208201905061117f5f83018461115d565b92915050565b5f806040838503121561119b5761119a610f59565b5b5f6111a885828601610fa3565b92505060206111b985828601610fa3565b9150509250929050565b7f4e487b71000000000000000000000000000000000000000000000000000000005f52602260045260245ffd5b5f600282049050600182168061120757607f821691505b60208210810361121a576112196111c3565b5b50919050565b7f496e73756666696369656e7420746f6b656e2062616c616e63650000000000005f82015250565b5f611254601a83610eb9565b915061125f82611220565b602082019050919050565b5f6020820190508181035f83015261128181611248565b9050919050565b7f4e487b71000000000000000000000000000000000000000000000000000000005f52601160045260245ffd5b5f8160011c9050919050565b5f808291508390505b600185111561130a578086048111156112e6576112e5611288565b5b60018516156112f55780820291505b8081029050611303856112b5565b94506112ca565b94509492505050565b5f8261132257600190506113dd565b8161132f575f90506113dd565b8160018114611345576002811461134f5761137e565b60019150506113dd565b60ff84111561136157611360611288565b5b8360020a91508482111561137857611377611288565b5b506113dd565b5060208310610133831016604e8410600b84101617156113b35782820a9050838111156113ae576113ad611288565b5b6113dd565b6113c084848460016112c1565b925090508184048111156113d7576113d6611288565b5b81810290505b9392505050565b5f6113ee82610fb7565b91506113f9836110d3565b92506114267fffffffffffffffffffffffffffffffffffffffffffffffffffffffffffffffff8484611313565b905092915050565b7f4e487b71000000000000000000000000000000000000000000000000000000005f52601260045260245ffd5b5f61146582610fb7565b915061147083610fb7565b9250826114805761147f61142e565b5b828204905092915050565b5f61149582610fb7565b91506114a083610fb7565b92508282026114ae81610fb7565b915082820484148315176114c5576114c4611288565b5b5092915050565b7f596f75206e65656420746f2073656e6420736f6d6520457468657200000000005f82015250565b5f611500601b83610eb9565b915061150b826114cc565b602082019050919050565b5f6020820190508181035f83015261152d816114f4565b9050919050565b7f4e6f7420656e6f75676820746f6b656e7320617661696c61626c6500000000005f82015250565b5f611568601b83610eb9565b915061157382611534565b602082019050919050565b5f6020820190508181035f8301526115958161155c565b9050919050565b7f4f6e6c7920746865206f776e65722063616e20776974686472617720455448005f82015250565b5f6115d0601f83610eb9565b91506115db8261159c565b602082019050919050565b5f6020820190508181035f8301526115fd816115c4565b9050919050565b5f6060820190506116175f83018661115d565b611624602083018561105b565b611631604083018461105b565b949350505050565b5f61164382610fb7565b915061164e83610fb7565b925082820190508082111561166657611665611288565b5b9291505056fea2646970667358221220ce4566eb09e99b41eb7fe4ec12389a30743624c68eacda7daf7c5259a095268f64736f6c63430008140033",
  "immutableReferences": {},
  "source": "// SPDX-License-Identifier: MIT\npragma solidity >=0.4.22 <0.9.0;\n\nimport \"@openzeppelin/contracts/token/ERC20/ERC20.sol\";\n\ncontract CasinoChip is ERC20 {\n    address public owner;\n    // token=0.01eth\n    uint256 public constant tokenPrice = 10000000000000000 wei; // Price of one token in ETH,token=0.1\n\n    constructor(uint256 _initialsuppy) ERC20(\"CasinoChip\", \"CCHIP\") {\n        owner = msg.sender;\n        _mint(msg.sender, _initialsuppy * 10 ** decimals()); \n    }\n\n    // Buy tokens with ETH\n    function buyTokens() external payable {\n        require(msg.value > 0, \"You need to send some Ether\");\n        uint256 amountToBuy = (msg.value / tokenPrice)* 10 ** decimals();\n        require(balanceOf(owner) >= amountToBuy, \"Not enough tokens available\");\n        _transfer(owner, msg.sender, amountToBuy);\n    }\n\n    // Withdraw tokens and receive ETH back\n    function withdrawTokens(uint256 tokenAmount) external {\n        require(balanceOf(msg.sender) >= tokenAmount, \"Insufficient token balance\");\n        _transfer(msg.sender, owner, tokenAmount);\n        payable(msg.sender).transfer(((tokenAmount)/10** decimals()) * tokenPrice);\n    }\n\n    // Transfer tokens to another address\n    function transferTokens(address recipient, uint256 amount) external {\n        _transfer(msg.sender, recipient, amount);\n    }\n\n    // Allows the contract to receive ETH\n    receive() external payable {}\n\n    // Withdraw ETH from the contract (only owner)\n    function withdrawETH() external {\n        require(msg.sender == owner, \"Only the owner can withdraw ETH\");\n        payable(owner).transfer(address(this).balance);\n    }\n}\n",
  "sourcePath": "/Users/ajaym1/casino-dapp/casino-contract/contracts/CasinoChip.sol",
  "compiler": {
    "name": "solc",
    "version": "0.8.20+commit.a1b79de6.Emscripten.clang"
  },
  "schemaVersion": "3.4.16",
  "updatedAt": "2023-11-19T20:12:39.410Z",
  "devdoc": {
    "errors": {
      "ERC20InsufficientAllowance(address,uint256,uint256)": [
        {
          "details": "Indicates a failure with the `spender`s `allowance`. Used in transfers.",
          "params": {
            "allowance": "Amount of tokens a `spender` is allowed to operate with.",
            "needed": "Minimum amount required to perform a transfer.",
            "spender": "Address that may be allowed to operate on tokens without being their owner."
          }
        }
      ],
      "ERC20InsufficientBalance(address,uint256,uint256)": [
        {
          "details": "Indicates an error related to the current `balance` of a `sender`. Used in transfers.",
          "params": {
            "balance": "Current balance for the interacting account.",
            "needed": "Minimum amount required to perform a transfer.",
            "sender": "Address whose tokens are being transferred."
          }
        }
      ],
      "ERC20InvalidApprover(address)": [
        {
          "details": "Indicates a failure with the `approver` of a token to be approved. Used in approvals.",
          "params": {
            "approver": "Address initiating an approval operation."
          }
        }
      ],
      "ERC20InvalidReceiver(address)": [
        {
          "details": "Indicates a failure with the token `receiver`. Used in transfers.",
          "params": {
            "receiver": "Address to which tokens are being transferred."
          }
        }
      ],
      "ERC20InvalidSender(address)": [
        {
          "details": "Indicates a failure with the token `sender`. Used in transfers.",
          "params": {
            "sender": "Address whose tokens are being transferred."
          }
        }
      ],
      "ERC20InvalidSpender(address)": [
        {
          "details": "Indicates a failure with the `spender` to be approved. Used in approvals.",
          "params": {
            "spender": "Address that may be allowed to operate on tokens without being their owner."
          }
        }
      ]
    },
    "events": {
      "Approval(address,address,uint256)": {
        "details": "Emitted when the allowance of a `spender` for an `owner` is set by a call to {approve}. `value` is the new allowance."
      },
      "Transfer(address,address,uint256)": {
        "details": "Emitted when `value` tokens are moved from one account (`from`) to another (`to`). Note that `value` may be zero."
      }
    },
    "kind": "dev",
    "methods": {
      "allowance(address,address)": {
        "details": "See {IERC20-allowance}."
      },
      "approve(address,uint256)": {
        "details": "See {IERC20-approve}. NOTE: If `value` is the maximum `uint256`, the allowance is not updated on `transferFrom`. This is semantically equivalent to an infinite approval. Requirements: - `spender` cannot be the zero address."
      },
      "balanceOf(address)": {
        "details": "See {IERC20-balanceOf}."
      },
      "decimals()": {
        "details": "Returns the number of decimals used to get its user representation. For example, if `decimals` equals `2`, a balance of `505` tokens should be displayed to a user as `5.05` (`505 / 10 ** 2`). Tokens usually opt for a value of 18, imitating the relationship between Ether and Wei. This is the default value returned by this function, unless it's overridden. NOTE: This information is only used for _display_ purposes: it in no way affects any of the arithmetic of the contract, including {IERC20-balanceOf} and {IERC20-transfer}."
      },
      "name()": {
        "details": "Returns the name of the token."
      },
      "symbol()": {
        "details": "Returns the symbol of the token, usually a shorter version of the name."
      },
      "totalSupply()": {
        "details": "See {IERC20-totalSupply}."
      },
      "transfer(address,uint256)": {
        "details": "See {IERC20-transfer}. Requirements: - `to` cannot be the zero address. - the caller must have a balance of at least `value`."
      },
      "transferFrom(address,address,uint256)": {
        "details": "See {IERC20-transferFrom}. Emits an {Approval} event indicating the updated allowance. This is not required by the EIP. See the note at the beginning of {ERC20}. NOTE: Does not update the allowance if the current allowance is the maximum `uint256`. Requirements: - `from` and `to` cannot be the zero address. - `from` must have a balance of at least `value`. - the caller must have allowance for ``from``'s tokens of at least `value`."
      }
    },
    "version": 1
  },
  "userdoc": {
    "kind": "user",
    "methods": {},
    "version": 1
  }
}