{
  "contractName": "CasinoItems",
  "abi": [
    {
      "inputs": [
        {
          "internalType": "address payable",
          "name": "_casinoChipAddress",
          "type": "address"
        },
        {
          "internalType": "address",
          "name": "_casinoNFTAddress",
          "type": "address"
        }
      ],
      "stateMutability": "nonpayable",
      "type": "constructor"
    },
    {
      "inputs": [
        {
          "internalType": "address",
          "name": "sender",
          "type": "address"
        },
        {
          "internalType": "uint256",
          "name": "balance",
          "type": "uint256"
        },
        {
          "internalType": "uint256",
          "name": "needed",
          "type": "uint256"
        },
        {
          "internalType": "uint256",
          "name": "tokenId",
          "type": "uint256"
        }
      ],
      "name": "ERC1155InsufficientBalance",
      "type": "error"
    },
    {
      "inputs": [
        {
          "internalType": "address",
          "name": "approver",
          "type": "address"
        }
      ],
      "name": "ERC1155InvalidApprover",
      "type": "error"
    },
    {
      "inputs": [
        {
          "internalType": "uint256",
          "name": "idsLength",
          "type": "uint256"
        },
        {
          "internalType": "uint256",
          "name": "valuesLength",
          "type": "uint256"
        }
      ],
      "name": "ERC1155InvalidArrayLength",
      "type": "error"
    },
    {
      "inputs": [
        {
          "internalType": "address",
          "name": "operator",
          "type": "address"
        }
      ],
      "name": "ERC1155InvalidOperator",
      "type": "error"
    },
    {
      "inputs": [
        {
          "internalType": "address",
          "name": "receiver",
          "type": "address"
        }
      ],
      "name": "ERC1155InvalidReceiver",
      "type": "error"
    },
    {
      "inputs": [
        {
          "internalType": "address",
          "name": "sender",
          "type": "address"
        }
      ],
      "name": "ERC1155InvalidSender",
      "type": "error"
    },
    {
      "inputs": [
        {
          "internalType": "address",
          "name": "operator",
          "type": "address"
        },
        {
          "internalType": "address",
          "name": "owner",
          "type": "address"
        }
      ],
      "name": "ERC1155MissingApprovalForAll",
      "type": "error"
    },
    {
      "anonymous": false,
      "inputs": [
        {
          "indexed": true,
          "internalType": "address",
          "name": "account",
          "type": "address"
        },
        {
          "indexed": true,
          "internalType": "address",
          "name": "operator",
          "type": "address"
        },
        {
          "indexed": false,
          "internalType": "bool",
          "name": "approved",
          "type": "bool"
        }
      ],
      "name": "ApprovalForAll",
      "type": "event"
    },
    {
      "anonymous": false,
      "inputs": [
        {
          "indexed": true,
          "internalType": "address",
          "name": "operator",
          "type": "address"
        },
        {
          "indexed": true,
          "internalType": "address",
          "name": "from",
          "type": "address"
        },
        {
          "indexed": true,
          "internalType": "address",
          "name": "to",
          "type": "address"
        },
        {
          "indexed": false,
          "internalType": "uint256[]",
          "name": "ids",
          "type": "uint256[]"
        },
        {
          "indexed": false,
          "internalType": "uint256[]",
          "name": "values",
          "type": "uint256[]"
        }
      ],
      "name": "TransferBatch",
      "type": "event"
    },
    {
      "anonymous": false,
      "inputs": [
        {
          "indexed": true,
          "internalType": "address",
          "name": "operator",
          "type": "address"
        },
        {
          "indexed": true,
          "internalType": "address",
          "name": "from",
          "type": "address"
        },
        {
          "indexed": true,
          "internalType": "address",
          "name": "to",
          "type": "address"
        },
        {
          "indexed": false,
          "internalType": "uint256",
          "name": "id",
          "type": "uint256"
        },
        {
          "indexed": false,
          "internalType": "uint256",
          "name": "value",
          "type": "uint256"
        }
      ],
      "name": "TransferSingle",
      "type": "event"
    },
    {
      "anonymous": false,
      "inputs": [
        {
          "indexed": false,
          "internalType": "string",
          "name": "value",
          "type": "string"
        },
        {
          "indexed": true,
          "internalType": "uint256",
          "name": "id",
          "type": "uint256"
        }
      ],
      "name": "URI",
      "type": "event"
    },
    {
      "inputs": [
        {
          "internalType": "address",
          "name": "account",
          "type": "address"
        },
        {
          "internalType": "address",
          "name": "operator",
          "type": "address"
        }
      ],
      "name": "isApprovedForAll",
      "outputs": [
        {
          "internalType": "bool",
          "name": "",
          "type": "bool"
        }
      ],
      "stateMutability": "view",
      "type": "function",
      "constant": true
    },
    {
      "inputs": [],
      "name": "owner",
      "outputs": [
        {
          "internalType": "address",
          "name": "",
          "type": "address"
        }
      ],
      "stateMutability": "view",
      "type": "function",
      "constant": true
    },
    {
      "inputs": [
        {
          "internalType": "address",
          "name": "from",
          "type": "address"
        },
        {
          "internalType": "address",
          "name": "to",
          "type": "address"
        },
        {
          "internalType": "uint256[]",
          "name": "ids",
          "type": "uint256[]"
        },
        {
          "internalType": "uint256[]",
          "name": "values",
          "type": "uint256[]"
        },
        {
          "internalType": "bytes",
          "name": "data",
          "type": "bytes"
        }
      ],
      "name": "safeBatchTransferFrom",
      "outputs": [],
      "stateMutability": "nonpayable",
      "type": "function"
    },
    {
      "inputs": [
        {
          "internalType": "address",
          "name": "from",
          "type": "address"
        },
        {
          "internalType": "address",
          "name": "to",
          "type": "address"
        },
        {
          "internalType": "uint256",
          "name": "id",
          "type": "uint256"
        },
        {
          "internalType": "uint256",
          "name": "value",
          "type": "uint256"
        },
        {
          "internalType": "bytes",
          "name": "data",
          "type": "bytes"
        }
      ],
      "name": "safeTransferFrom",
      "outputs": [],
      "stateMutability": "nonpayable",
      "type": "function"
    },
    {
      "inputs": [
        {
          "internalType": "address",
          "name": "operator",
          "type": "address"
        },
        {
          "internalType": "bool",
          "name": "approved",
          "type": "bool"
        }
      ],
      "name": "setApprovalForAll",
      "outputs": [],
      "stateMutability": "nonpayable",
      "type": "function"
    },
    {
      "inputs": [
        {
          "internalType": "bytes4",
          "name": "interfaceId",
          "type": "bytes4"
        }
      ],
      "name": "supportsInterface",
      "outputs": [
        {
          "internalType": "bool",
          "name": "",
          "type": "bool"
        }
      ],
      "stateMutability": "view",
      "type": "function",
      "constant": true
    },
    {
      "inputs": [
        {
          "internalType": "uint256",
          "name": "amount",
          "type": "uint256"
        }
      ],
      "name": "approveCasinoChip",
      "outputs": [],
      "stateMutability": "nonpayable",
      "type": "function"
    },
    {
      "inputs": [
        {
          "internalType": "address",
          "name": "ownerNFT",
          "type": "address"
        }
      ],
      "name": "approveCasinoNFT",
      "outputs": [],
      "stateMutability": "nonpayable",
      "type": "function"
    },
    {
      "inputs": [
        {
          "internalType": "uint256",
          "name": "tokenId",
          "type": "uint256"
        }
      ],
      "name": "uri",
      "outputs": [
        {
          "internalType": "string",
          "name": "",
          "type": "string"
        }
      ],
      "stateMutability": "view",
      "type": "function",
      "constant": true
    },
    {
      "inputs": [
        {
          "internalType": "address",
          "name": "account",
          "type": "address"
        },
        {
          "internalType": "uint256",
          "name": "id",
          "type": "uint256"
        }
      ],
      "name": "balanceOf",
      "outputs": [
        {
          "internalType": "uint256",
          "name": "",
          "type": "uint256"
        }
      ],
      "stateMutability": "view",
      "type": "function",
      "constant": true
    },
    {
      "inputs": [
        {
          "internalType": "address[]",
          "name": "accounts",
          "type": "address[]"
        },
        {
          "internalType": "uint256[]",
          "name": "ids",
          "type": "uint256[]"
        }
      ],
      "name": "balanceOfBatch",
      "outputs": [
        {
          "internalType": "uint256[]",
          "name": "",
          "type": "uint256[]"
        }
      ],
      "stateMutability": "view",
      "type": "function",
      "constant": true
    },
    {
      "inputs": [
        {
          "internalType": "uint256",
          "name": "tokenId",
          "type": "uint256"
        },
        {
          "internalType": "uint256",
          "name": "erc20Amount",
          "type": "uint256"
        }
      ],
      "name": "buyNFTWithERC20",
      "outputs": [],
      "stateMutability": "nonpayable",
      "type": "function"
    },
    {
      "inputs": [
        {
          "internalType": "uint256",
          "name": "betAmount",
          "type": "uint256"
        },
        {
          "internalType": "uint256",
          "name": "chosenNumber",
          "type": "uint256"
        },
        {
          "internalType": "uint256",
          "name": "userProvidedSeed",
          "type": "uint256"
        }
      ],
      "name": "rollDice",
      "outputs": [],
      "stateMutability": "nonpayable",
      "type": "function"
    },
    {
      "inputs": [],
      "name": "buyTokens",
      "outputs": [],
      "stateMutability": "payable",
      "type": "function",
      "payable": true
    },
    {
      "inputs": [
        {
          "internalType": "uint256",
          "name": "tokenAmount",
          "type": "uint256"
        }
      ],
      "name": "withdrawTokens",
      "outputs": [],
      "stateMutability": "nonpayable",
      "type": "function"
    },
    {
      "inputs": [
        {
          "internalType": "address",
          "name": "recipient",
          "type": "address"
        },
        {
          "internalType": "uint256",
          "name": "amount",
          "type": "uint256"
        }
      ],
      "name": "transferTokens",
      "outputs": [],
      "stateMutability": "nonpayable",
      "type": "function"
    },
    {
      "inputs": [
        {
          "internalType": "uint256",
          "name": "tokenId",
          "type": "uint256"
        },
        {
          "internalType": "uint256",
          "name": "price",
          "type": "uint256"
        }
      ],
      "name": "setPriceofNFT",
      "outputs": [],
      "stateMutability": "nonpayable",
      "type": "function"
    },
    {
      "inputs": [
        {
          "internalType": "uint256",
          "name": "tokenId",
          "type": "uint256"
        }
      ],
      "name": "buyNFTWithETH",
      "outputs": [],
      "stateMutability": "payable",
      "type": "function",
      "payable": true
    },
    {
      "inputs": [],
      "name": "withdrawETH",
      "outputs": [],
      "stateMutability": "nonpayable",
      "type": "function"
    },
    {
      "inputs": [
        {
          "internalType": "address",
          "name": "from",
          "type": "address"
        },
        {
          "internalType": "address",
          "name": "to",
          "type": "address"
        },
        {
          "internalType": "uint256[]",
          "name": "ids",
          "type": "uint256[]"
        },
        {
          "internalType": "uint256[]",
          "name": "amounts",
          "type": "uint256[]"
        }
      ],
      "name": "customSafeBatchTransferFrom",
      "outputs": [],
      "stateMutability": "nonpayable",
      "type": "function"
    }
  ],
  "bytecode": "0x60806040526104d260055534801562000016575f80fd5b50604051620049d6380380620049d683398181016040528101906200003c919062000208565b6040518060400160405280600a81526020017f436173696e6f313135350000000000000000000000000000000000000000000081525062000083816200014c60201b60201c565b503360065f6101000a81548173ffffffffffffffffffffffffffffffffffffffff021916908373ffffffffffffffffffffffffffffffffffffffff1602179055508160035f6101000a81548173ffffffffffffffffffffffffffffffffffffffff021916908373ffffffffffffffffffffffffffffffffffffffff1602179055508060045f6101000a81548173ffffffffffffffffffffffffffffffffffffffff021916908373ffffffffffffffffffffffffffffffffffffffff160217905550505062000595565b80600290816200015d9190620004b1565b5050565b5f80fd5b5f73ffffffffffffffffffffffffffffffffffffffff82169050919050565b5f620001908262000165565b9050919050565b620001a28162000184565b8114620001ad575f80fd5b50565b5f81519050620001c08162000197565b92915050565b5f620001d28262000165565b9050919050565b620001e481620001c6565b8114620001ef575f80fd5b50565b5f815190506200020281620001d9565b92915050565b5f806040838503121562000221576200022062000161565b5b5f6200023085828601620001b0565b92505060206200024385828601620001f2565b9150509250929050565b5f81519050919050565b7f4e487b71000000000000000000000000000000000000000000000000000000005f52604160045260245ffd5b7f4e487b71000000000000000000000000000000000000000000000000000000005f52602260045260245ffd5b5f6002820490506001821680620002c957607f821691505b602082108103620002df57620002de62000284565b5b50919050565b5f819050815f5260205f209050919050565b5f6020601f8301049050919050565b5f82821b905092915050565b5f60088302620003437fffffffffffffffffffffffffffffffffffffffffffffffffffffffffffffffff8262000306565b6200034f868362000306565b95508019841693508086168417925050509392505050565b5f819050919050565b5f819050919050565b5f62000399620003936200038d8462000367565b62000370565b62000367565b9050919050565b5f819050919050565b620003b48362000379565b620003cc620003c382620003a0565b84845462000312565b825550505050565b5f90565b620003e2620003d4565b620003ef818484620003a9565b505050565b5b8181101562000416576200040a5f82620003d8565b600181019050620003f5565b5050565b601f82111562000465576200042f81620002e5565b6200043a84620002f7565b810160208510156200044a578190505b620004626200045985620002f7565b830182620003f4565b50505b505050565b5f82821c905092915050565b5f620004875f19846008026200046a565b1980831691505092915050565b5f620004a1838362000476565b9150826002028217905092915050565b620004bc826200024d565b67ffffffffffffffff811115620004d857620004d762000257565b5b620004e48254620002b1565b620004f18282856200041a565b5f60209050601f83116001811462000527575f841562000512578287015190505b6200051e858262000494565b8655506200058d565b601f1984166200053786620002e5565b5f5b82811015620005605784890151825560018201915060208501945060208101905062000539565b868310156200058057848901516200057c601f89168262000476565b8355505b6001600288020188555050505b505050505050565b61443380620005a35f395ff3fe60806040526004361061011d575f3560e01c8063a84f778b1161009f578063e985e9c511610063578063e985e9c51461039b578063ec186db3146103d7578063f01c5c19146103f3578063f242432a1461041b578063fffa4ec8146104435761011d565b8063a84f778b14610303578063bec3fa171461032b578063d0febe4c14610353578063d94cca641461035d578063e086e5ec146103855761011d565b8063315a095d116100e6578063315a095d146102255780634116616c1461024d5780634e1273f4146102755780638da5cb5b146102b1578063a22cb465146102db5761011d565b8062fdd58e1461012157806301ffc9a71461015d5780630e89341c146101995780631f444e58146101d55780632eb2c2d6146101fd575b5f80fd5b34801561012c575f80fd5b5061014760048036038101906101429190612c23565b61046b565b6040516101549190612c70565b60405180910390f35b348015610168575f80fd5b50610183600480360381019061017e9190612cde565b61060c565b6040516101909190612d23565b60405180910390f35b3480156101a4575f80fd5b506101bf60048036038101906101ba9190612d3c565b6106ed565b6040516101cc9190612df1565b60405180910390f35b3480156101e0575f80fd5b506101fb60048036038101906101f69190612e11565b6107ab565b005b348015610208575f80fd5b50610223600480360381019061021e919061302c565b610837565b005b348015610230575f80fd5b5061024b60048036038101906102469190612d3c565b6108de565b005b348015610258575f80fd5b50610273600480360381019061026e91906130f7565b61096a565b005b348015610280575f80fd5b5061029b600480360381019061029691906131f5565b6109f7565b6040516102a89190613322565b60405180910390f35b3480156102bc575f80fd5b506102c5610b0e565b6040516102d29190613351565b60405180910390f35b3480156102e6575f80fd5b5061030160048036038101906102fc9190613394565b610b33565b005b34801561030e575f80fd5b5061032960048036038101906103249190612d3c565b610b49565b005b348015610336575f80fd5b50610351600480360381019061034c9190612c23565b610bd7565b005b61035b610c66565b005b348015610368575f80fd5b50610383600480360381019061037e91906133d2565b610cf1565b005b348015610390575f80fd5b5061039961123f565b005b3480156103a6575f80fd5b506103c160048036038101906103bc9190613422565b6113bc565b6040516103ce9190612d23565b60405180910390f35b6103f160048036038101906103ec9190612d3c565b61144a565b005b3480156103fe575f80fd5b5061041960048036038101906104149190613460565b6114d6565b005b348015610426575f80fd5b50610441600480360381019061043c91906134fc565b611921565b005b34801561044e575f80fd5b50610469600480360381019061046491906130f7565b6119c8565b005b5f600182036105145760035f9054906101000a900473ffffffffffffffffffffffffffffffffffffffff1673ffffffffffffffffffffffffffffffffffffffff166370a08231846040518263ffffffff1660e01b81526004016104ce9190613351565b602060405180830381865afa1580156104e9573d5f803e3d5ffd5b505050506040513d601f19601f8201168201806040525081019061050d91906135a3565b9050610606565b600282106105fa578273ffffffffffffffffffffffffffffffffffffffff1660045f9054906101000a900473ffffffffffffffffffffffffffffffffffffffff1673ffffffffffffffffffffffffffffffffffffffff16636352211e846040518263ffffffff1660e01b815260040161058d9190612c70565b602060405180830381865afa1580156105a8573d5f803e3d5ffd5b505050506040513d601f19601f820116820180604052508101906105cc91906135e2565b73ffffffffffffffffffffffffffffffffffffffff16146105ed575f6105f0565b60015b60ff169050610606565b6106048383611ee8565b505b92915050565b5f7fd9b67a26000000000000000000000000000000000000000000000000000000007bffffffffffffffffffffffffffffffffffffffffffffffffffffffff1916827bffffffffffffffffffffffffffffffffffffffffffffffffffffffff191614806106d657507f0e89341c000000000000000000000000000000000000000000000000000000007bffffffffffffffffffffffffffffffffffffffffffffffffffffffff1916827bffffffffffffffffffffffffffffffffffffffffffffffffffffffff1916145b806106e657506106e582611f3d565b5b9050919050565b60606002821061079a5760045f9054906101000a900473ffffffffffffffffffffffffffffffffffffffff1673ffffffffffffffffffffffffffffffffffffffff1663c87b56dd836040518263ffffffff1660e01b81526004016107519190612c70565b5f60405180830381865afa15801561076b573d5f803e3d5ffd5b505050506040513d5f823e3d601f19601f8201168201806040525081019061079391906136ab565b90506107a6565b6107a382611fa6565b90505b919050565b60045f9054906101000a900473ffffffffffffffffffffffffffffffffffffffff1673ffffffffffffffffffffffffffffffffffffffff1663eb0cd87d82306040518363ffffffff1660e01b81526004016108079291906136f2565b5f604051808303815f87803b15801561081e575f80fd5b505af1158015610830573d5f803e3d5ffd5b5050505050565b5f610840612038565b90508073ffffffffffffffffffffffffffffffffffffffff168673ffffffffffffffffffffffffffffffffffffffff1614158015610885575061088386826113bc565b155b156108c95780866040517fe237d9220000000000000000000000000000000000000000000000000000000081526004016108c09291906136f2565b60405180910390fd5b6108d6868686868661203f565b505050505050565b60035f9054906101000a900473ffffffffffffffffffffffffffffffffffffffff1673ffffffffffffffffffffffffffffffffffffffff166306b091f933836040518363ffffffff1660e01b815260040161093a929190613719565b5f604051808303815f87803b158015610951575f80fd5b505af1158015610963573d5f803e3d5ffd5b5050505050565b60045f9054906101000a900473ffffffffffffffffffffffffffffffffffffffff1673ffffffffffffffffffffffffffffffffffffffff1663f7d9757783836040518363ffffffff1660e01b81526004016109c6929190613740565b5f604051808303815f87803b1580156109dd575f80fd5b505af11580156109ef573d5f803e3d5ffd5b505050505050565b60608151835114610a3d576040517f08c379a0000000000000000000000000000000000000000000000000000000008152600401610a34906137b1565b60405180910390fd5b5f835167ffffffffffffffff811115610a5957610a58612e40565b5b604051908082528060200260200182016040528015610a875781602001602082028036833780820191505090505b5090505f5b8451811015610b0357610ad3858281518110610aab57610aaa6137cf565b5b6020026020010151858381518110610ac657610ac56137cf565b5b602002602001015161046b565b828281518110610ae657610ae56137cf565b5b60200260200101818152505080610afc90613829565b9050610a8c565b508091505092915050565b60065f9054906101000a900473ffffffffffffffffffffffffffffffffffffffff1681565b610b45610b3e612038565b8383612133565b5050565b60035f9054906101000a900473ffffffffffffffffffffffffffffffffffffffff1673ffffffffffffffffffffffffffffffffffffffff16636e11fb1b3330846040518463ffffffff1660e01b8152600401610ba793929190613870565b5f604051808303815f87803b158015610bbe575f80fd5b505af1158015610bd0573d5f803e3d5ffd5b5050505050565b60035f9054906101000a900473ffffffffffffffffffffffffffffffffffffffff1673ffffffffffffffffffffffffffffffffffffffff1663a64b6e5f3384846040518463ffffffff1660e01b8152600401610c3593929190613870565b5f604051808303815f87803b158015610c4c575f80fd5b505af1158015610c5e573d5f803e3d5ffd5b505050505050565b60035f9054906101000a900473ffffffffffffffffffffffffffffffffffffffff1673ffffffffffffffffffffffffffffffffffffffff1663ec8ac4d834336040518363ffffffff1660e01b8152600401610cc19190613351565b5f604051808303818588803b158015610cd8575f80fd5b505af1158015610cea573d5f803e3d5ffd5b5050505050565b8260035f9054906101000a900473ffffffffffffffffffffffffffffffffffffffff1673ffffffffffffffffffffffffffffffffffffffff166370a08231336040518263ffffffff1660e01b8152600401610d4c9190613351565b602060405180830381865afa158015610d67573d5f803e3d5ffd5b505050506040513d601f19601f82011682018060405250810190610d8b91906135a3565b1015610dcc576040517f08c379a0000000000000000000000000000000000000000000000000000000008152600401610dc3906138ef565b60405180910390fd5b60035f9054906101000a900473ffffffffffffffffffffffffffffffffffffffff1673ffffffffffffffffffffffffffffffffffffffff166323b872dd3360035f9054906101000a900473ffffffffffffffffffffffffffffffffffffffff1673ffffffffffffffffffffffffffffffffffffffff16638da5cb5b6040518163ffffffff1660e01b8152600401602060405180830381865afa158015610e74573d5f803e3d5ffd5b505050506040513d601f19601f82011682018060405250810190610e9891906135e2565b866040518463ffffffff1660e01b8152600401610eb793929190613870565b6020604051808303815f875af1158015610ed3573d5f803e3d5ffd5b505050506040513d601f19601f82011682018060405250810190610ef79190613921565b506005548133604051602001610f0f939291906139b1565b604051602081830303815290604052805190602001205f1c60058190555060644260055433604051602001610f46939291906139b1565b604051602081830303815290604052805190602001205f1c610f689190613a1a565b6005819055505f60016006600554610f809190613a1a565b610f8a9190613a4a565b9050828103611239575f600585610fa19190613a7d565b90508060035f9054906101000a900473ffffffffffffffffffffffffffffffffffffffff1673ffffffffffffffffffffffffffffffffffffffff166370a0823160035f9054906101000a900473ffffffffffffffffffffffffffffffffffffffff1673ffffffffffffffffffffffffffffffffffffffff16638da5cb5b6040518163ffffffff1660e01b8152600401602060405180830381865afa15801561104b573d5f803e3d5ffd5b505050506040513d601f19601f8201168201806040525081019061106f91906135e2565b6040518263ffffffff1660e01b815260040161108b9190613351565b602060405180830381865afa1580156110a6573d5f803e3d5ffd5b505050506040513d601f19601f820116820180604052508101906110ca91906135a3565b101561110b576040517f08c379a000000000000000000000000000000000000000000000000000000000815260040161110290613b08565b60405180910390fd5b60035f9054906101000a900473ffffffffffffffffffffffffffffffffffffffff1673ffffffffffffffffffffffffffffffffffffffff166323b872dd60035f9054906101000a900473ffffffffffffffffffffffffffffffffffffffff1673ffffffffffffffffffffffffffffffffffffffff16638da5cb5b6040518163ffffffff1660e01b8152600401602060405180830381865afa1580156111b2573d5f803e3d5ffd5b505050506040513d601f19601f820116820180604052508101906111d691906135e2565b33846040518463ffffffff1660e01b81526004016111f693929190613870565b6020604051808303815f875af1158015611212573d5f803e3d5ffd5b505050506040513d601f19601f820116820180604052508101906112369190613921565b50505b50505050565b60065f9054906101000a900473ffffffffffffffffffffffffffffffffffffffff1673ffffffffffffffffffffffffffffffffffffffff163373ffffffffffffffffffffffffffffffffffffffff16146112ce576040517f08c379a00000000000000000000000000000000000000000000000000000000081526004016112c590613b70565b60405180910390fd5b60065f9054906101000a900473ffffffffffffffffffffffffffffffffffffffff1673ffffffffffffffffffffffffffffffffffffffff166108fc4790811502906040515f60405180830381858888f19350505050158015611332573d5f803e3d5ffd5b5060035f9054906101000a900473ffffffffffffffffffffffffffffffffffffffff1673ffffffffffffffffffffffffffffffffffffffff1663690d8320336040518263ffffffff1660e01b815260040161138d9190613351565b5f604051808303815f87803b1580156113a4575f80fd5b505af11580156113b6573d5f803e3d5ffd5b50505050565b5f60015f8473ffffffffffffffffffffffffffffffffffffffff1673ffffffffffffffffffffffffffffffffffffffff1681526020019081526020015f205f8373ffffffffffffffffffffffffffffffffffffffff1673ffffffffffffffffffffffffffffffffffffffff1681526020019081526020015f205f9054906101000a900460ff16905092915050565b60045f9054906101000a900473ffffffffffffffffffffffffffffffffffffffff1673ffffffffffffffffffffffffffffffffffffffff166351ed828834836040518363ffffffff1660e01b81526004016114a59190612c70565b5f604051808303818588803b1580156114bc575f80fd5b505af11580156114ce573d5f803e3d5ffd5b505050505050565b805182511461151a576040517f08c379a000000000000000000000000000000000000000000000000000000000815260040161151190613bd8565b60405180910390fd5b5f5b825181101561191a575f838281518110611539576115386137cf565b5b602002602001015190505f838381518110611557576115566137cf565b5b60200260200101519050600182036116e8578060035f9054906101000a900473ffffffffffffffffffffffffffffffffffffffff1673ffffffffffffffffffffffffffffffffffffffff166370a08231896040518263ffffffff1660e01b81526004016115c49190613351565b602060405180830381865afa1580156115df573d5f803e3d5ffd5b505050506040513d601f19601f8201168201806040525081019061160391906135a3565b1015611644576040517f08c379a000000000000000000000000000000000000000000000000000000000815260040161163b90613c40565b60405180910390fd5b60035f9054906101000a900473ffffffffffffffffffffffffffffffffffffffff1673ffffffffffffffffffffffffffffffffffffffff166323b872dd8888846040518463ffffffff1660e01b81526004016116a293929190613870565b6020604051808303815f875af11580156116be573d5f803e3d5ffd5b505050506040513d601f19601f820116820180604052508101906116e29190613921565b50611905565b600282106118c95760018114611733576040517f08c379a000000000000000000000000000000000000000000000000000000000815260040161172a90613cce565b60405180910390fd5b8673ffffffffffffffffffffffffffffffffffffffff1660045f9054906101000a900473ffffffffffffffffffffffffffffffffffffffff1673ffffffffffffffffffffffffffffffffffffffff16636352211e846040518263ffffffff1660e01b81526004016117a49190612c70565b602060405180830381865afa1580156117bf573d5f803e3d5ffd5b505050506040513d601f19601f820116820180604052508101906117e391906135e2565b73ffffffffffffffffffffffffffffffffffffffff1614611839576040517f08c379a000000000000000000000000000000000000000000000000000000000815260040161183090613d5c565b60405180910390fd5b60045f9054906101000a900473ffffffffffffffffffffffffffffffffffffffff1673ffffffffffffffffffffffffffffffffffffffff166342842e0e8888856040518463ffffffff1660e01b815260040161189793929190613870565b5f604051808303815f87803b1580156118ae575f80fd5b505af11580156118c0573d5f803e3d5ffd5b50505050611904565b6040517f08c379a00000000000000000000000000000000000000000000000000000000081526004016118fb90613dc4565b60405180910390fd5b5b5050808061191290613829565b91505061151c565b5050505050565b5f61192a612038565b90508073ffffffffffffffffffffffffffffffffffffffff168673ffffffffffffffffffffffffffffffffffffffff161415801561196f575061196d86826113bc565b155b156119b35780866040517fe237d9220000000000000000000000000000000000000000000000000000000081526004016119aa9291906136f2565b60405180910390fd5b6119c0868686868661229c565b505050505050565b5f60045f9054906101000a900473ffffffffffffffffffffffffffffffffffffffff1673ffffffffffffffffffffffffffffffffffffffff1663e5afe3e6846040518263ffffffff1660e01b8152600401611a239190612c70565b602060405180830381865afa158015611a3e573d5f803e3d5ffd5b505050506040513d601f19601f82011682018060405250810190611a6291906135a3565b90505f8111611aa6576040517f08c379a0000000000000000000000000000000000000000000000000000000008152600401611a9d90613e52565b60405180910390fd5b60035f9054906101000a900473ffffffffffffffffffffffffffffffffffffffff1673ffffffffffffffffffffffffffffffffffffffff1663313ce5676040518163ffffffff1660e01b8152600401602060405180830381865afa158015611b10573d5f803e3d5ffd5b505050506040513d601f19601f82011682018060405250810190611b349190613ea6565b600a611b409190614000565b60035f9054906101000a900473ffffffffffffffffffffffffffffffffffffffff1673ffffffffffffffffffffffffffffffffffffffff16637ff9b5966040518163ffffffff1660e01b8152600401602060405180830381865afa158015611baa573d5f803e3d5ffd5b505050506040513d601f19601f82011682018060405250810190611bce91906135a3565b82611bd9919061404a565b611be39190613a7d565b821015611c25576040517f08c379a0000000000000000000000000000000000000000000000000000000008152600401611c1c906140ea565b60405180910390fd5b5f60045f9054906101000a900473ffffffffffffffffffffffffffffffffffffffff1673ffffffffffffffffffffffffffffffffffffffff16636352211e856040518263ffffffff1660e01b8152600401611c809190612c70565b602060405180830381865afa158015611c9b573d5f803e3d5ffd5b505050506040513d601f19601f82011682018060405250810190611cbf91906135e2565b90503373ffffffffffffffffffffffffffffffffffffffff168173ffffffffffffffffffffffffffffffffffffffff1603611d2f576040517f08c379a0000000000000000000000000000000000000000000000000000000008152600401611d2690614152565b60405180910390fd5b60035f9054906101000a900473ffffffffffffffffffffffffffffffffffffffff1673ffffffffffffffffffffffffffffffffffffffff166323b872dd3383866040518463ffffffff1660e01b8152600401611d8d93929190613870565b6020604051808303815f875af1158015611da9573d5f803e3d5ffd5b505050506040513d601f19601f82011682018060405250810190611dcd9190613921565b5060045f9054906101000a900473ffffffffffffffffffffffffffffffffffffffff1673ffffffffffffffffffffffffffffffffffffffff166342842e0e8233876040518463ffffffff1660e01b8152600401611e2c93929190613870565b5f604051808303815f87803b158015611e43575f80fd5b505af1158015611e55573d5f803e3d5ffd5b5050505060045f9054906101000a900473ffffffffffffffffffffffffffffffffffffffff1673ffffffffffffffffffffffffffffffffffffffff1663f7d97577855f6040518363ffffffff1660e01b8152600401611eb59291906141b2565b5f604051808303815f87803b158015611ecc575f80fd5b505af1158015611ede573d5f803e3d5ffd5b5050505050505050565b5f805f8381526020019081526020015f205f8473ffffffffffffffffffffffffffffffffffffffff1673ffffffffffffffffffffffffffffffffffffffff1681526020019081526020015f2054905092915050565b5f7f01ffc9a7000000000000000000000000000000000000000000000000000000007bffffffffffffffffffffffffffffffffffffffffffffffffffffffff1916827bffffffffffffffffffffffffffffffffffffffffffffffffffffffff1916149050919050565b606060028054611fb590614206565b80601f0160208091040260200160405190810160405280929190818152602001828054611fe190614206565b801561202c5780601f106120035761010080835404028352916020019161202c565b820191905f5260205f20905b81548152906001019060200180831161200f57829003601f168201915b50505050509050919050565b5f33905090565b5f73ffffffffffffffffffffffffffffffffffffffff168473ffffffffffffffffffffffffffffffffffffffff16036120af575f6040517f57f447ce0000000000000000000000000000000000000000000000000000000081526004016120a69190613351565b60405180910390fd5b5f73ffffffffffffffffffffffffffffffffffffffff168573ffffffffffffffffffffffffffffffffffffffff160361211f575f6040517f01a835140000000000000000000000000000000000000000000000000000000081526004016121169190613351565b60405180910390fd5b61212c85858585856123a2565b5050505050565b5f73ffffffffffffffffffffffffffffffffffffffff168273ffffffffffffffffffffffffffffffffffffffff16036121a3575f6040517fced3e10000000000000000000000000000000000000000000000000000000000815260040161219a9190613351565b60405180910390fd5b8060015f8573ffffffffffffffffffffffffffffffffffffffff1673ffffffffffffffffffffffffffffffffffffffff1681526020019081526020015f205f8473ffffffffffffffffffffffffffffffffffffffff1673ffffffffffffffffffffffffffffffffffffffff1681526020019081526020015f205f6101000a81548160ff0219169083151502179055508173ffffffffffffffffffffffffffffffffffffffff168373ffffffffffffffffffffffffffffffffffffffff167f17307eab39ab6107e8899845ad3d59bd9653f200f220920489ca2b5937696c318360405161228f9190612d23565b60405180910390a3505050565b5f73ffffffffffffffffffffffffffffffffffffffff168473ffffffffffffffffffffffffffffffffffffffff160361230c575f6040517f57f447ce0000000000000000000000000000000000000000000000000000000081526004016123039190613351565b60405180910390fd5b5f73ffffffffffffffffffffffffffffffffffffffff168573ffffffffffffffffffffffffffffffffffffffff160361237c575f6040517f01a835140000000000000000000000000000000000000000000000000000000081526004016123739190613351565b60405180910390fd5b5f80612388858561244e565b9150915061239987878484876123a2565b50505050505050565b6123ae8585858561247e565b5f73ffffffffffffffffffffffffffffffffffffffff168473ffffffffffffffffffffffffffffffffffffffff1614612447575f6123ea612038565b90506001845103612436575f6124095f8661281490919063ffffffff16565b90505f61241f5f8661281490919063ffffffff16565b905061242f838989858589612827565b5050612445565b6124448187878787876129d6565b5b505b5050505050565b60608060405191506001825283602083015260408201905060018152826020820152604081016040529250929050565b80518251146124c857815181516040517f5b0599910000000000000000000000000000000000000000000000000000000081526004016124bf929190613740565b60405180910390fd5b5f6124d1612038565b90505f5b83518110156126d3575f6124f2828661281490919063ffffffff16565b90505f612508838661281490919063ffffffff16565b90505f73ffffffffffffffffffffffffffffffffffffffff168873ffffffffffffffffffffffffffffffffffffffff161461262b575f805f8481526020019081526020015f205f8a73ffffffffffffffffffffffffffffffffffffffff1673ffffffffffffffffffffffffffffffffffffffff1681526020019081526020015f20549050818110156125d757888183856040517f03dee4c50000000000000000000000000000000000000000000000000000000081526004016125ce9493929190614236565b60405180910390fd5b8181035f808581526020019081526020015f205f8b73ffffffffffffffffffffffffffffffffffffffff1673ffffffffffffffffffffffffffffffffffffffff1681526020019081526020015f2081905550505b5f73ffffffffffffffffffffffffffffffffffffffff168773ffffffffffffffffffffffffffffffffffffffff16146126c057805f808481526020019081526020015f205f8973ffffffffffffffffffffffffffffffffffffffff1673ffffffffffffffffffffffffffffffffffffffff1681526020019081526020015f205f8282546126b89190613a4a565b925050819055505b5050806126cc90613829565b90506124d5565b50600183510361278e575f6126f15f8561281490919063ffffffff16565b90505f6127075f8561281490919063ffffffff16565b90508573ffffffffffffffffffffffffffffffffffffffff168773ffffffffffffffffffffffffffffffffffffffff168473ffffffffffffffffffffffffffffffffffffffff167fc3d58168c5ae7397731d063d5bbf3d657854427343f4c083240f7aacaa2d0f62858560405161277f929190613740565b60405180910390a4505061280d565b8373ffffffffffffffffffffffffffffffffffffffff168573ffffffffffffffffffffffffffffffffffffffff168273ffffffffffffffffffffffffffffffffffffffff167f4a39dc06d4c0dbc64b70af90fd698a233a518aa5d07e595d983b8c0526c8f7fb8686604051612804929190614279565b60405180910390a45b5050505050565b5f60208202602084010151905092915050565b5f8473ffffffffffffffffffffffffffffffffffffffff163b11156129ce578373ffffffffffffffffffffffffffffffffffffffff1663f23a6e6187878686866040518663ffffffff1660e01b8152600401612887959493929190614300565b6020604051808303815f875af19250505080156128c257506040513d601f19601f820116820180604052508101906128bf919061436c565b60015b612943573d805f81146128f0576040519150601f19603f3d011682016040523d82523d5f602084013e6128f5565b606091505b505f81510361293b57846040517f57f447ce0000000000000000000000000000000000000000000000000000000081526004016129329190613351565b60405180910390fd5b805181602001fd5b63f23a6e6160e01b7bffffffffffffffffffffffffffffffffffffffffffffffffffffffff1916817bffffffffffffffffffffffffffffffffffffffffffffffffffffffff1916146129cc57846040517f57f447ce0000000000000000000000000000000000000000000000000000000081526004016129c39190613351565b60405180910390fd5b505b505050505050565b5f8473ffffffffffffffffffffffffffffffffffffffff163b1115612b7d578373ffffffffffffffffffffffffffffffffffffffff1663bc197c8187878686866040518663ffffffff1660e01b8152600401612a36959493929190614397565b6020604051808303815f875af1925050508015612a7157506040513d601f19601f82011682018060405250810190612a6e919061436c565b60015b612af2573d805f8114612a9f576040519150601f19603f3d011682016040523d82523d5f602084013e612aa4565b606091505b505f815103612aea57846040517f57f447ce000000000000000000000000000000000000000000000000000000008152600401612ae19190613351565b60405180910390fd5b805181602001fd5b63bc197c8160e01b7bffffffffffffffffffffffffffffffffffffffffffffffffffffffff1916817bffffffffffffffffffffffffffffffffffffffffffffffffffffffff191614612b7b57846040517f57f447ce000000000000000000000000000000000000000000000000000000008152600401612b729190613351565b60405180910390fd5b505b505050505050565b5f604051905090565b5f80fd5b5f80fd5b5f73ffffffffffffffffffffffffffffffffffffffff82169050919050565b5f612bbf82612b96565b9050919050565b612bcf81612bb5565b8114612bd9575f80fd5b50565b5f81359050612bea81612bc6565b92915050565b5f819050919050565b612c0281612bf0565b8114612c0c575f80fd5b50565b5f81359050612c1d81612bf9565b92915050565b5f8060408385031215612c3957612c38612b8e565b5b5f612c4685828601612bdc565b9250506020612c5785828601612c0f565b9150509250929050565b612c6a81612bf0565b82525050565b5f602082019050612c835f830184612c61565b92915050565b5f7fffffffff0000000000000000000000000000000000000000000000000000000082169050919050565b612cbd81612c89565b8114612cc7575f80fd5b50565b5f81359050612cd881612cb4565b92915050565b5f60208284031215612cf357612cf2612b8e565b5b5f612d0084828501612cca565b91505092915050565b5f8115159050919050565b612d1d81612d09565b82525050565b5f602082019050612d365f830184612d14565b92915050565b5f60208284031215612d5157612d50612b8e565b5b5f612d5e84828501612c0f565b91505092915050565b5f81519050919050565b5f82825260208201905092915050565b5f5b83811015612d9e578082015181840152602081019050612d83565b5f8484015250505050565b5f601f19601f8301169050919050565b5f612dc382612d67565b612dcd8185612d71565b9350612ddd818560208601612d81565b612de681612da9565b840191505092915050565b5f6020820190508181035f830152612e098184612db9565b905092915050565b5f60208284031215612e2657612e25612b8e565b5b5f612e3384828501612bdc565b91505092915050565b5f80fd5b7f4e487b71000000000000000000000000000000000000000000000000000000005f52604160045260245ffd5b612e7682612da9565b810181811067ffffffffffffffff82111715612e9557612e94612e40565b5b80604052505050565b5f612ea7612b85565b9050612eb38282612e6d565b919050565b5f67ffffffffffffffff821115612ed257612ed1612e40565b5b602082029050602081019050919050565b5f80fd5b5f612ef9612ef484612eb8565b612e9e565b90508083825260208201905060208402830185811115612f1c57612f1b612ee3565b5b835b81811015612f455780612f318882612c0f565b845260208401935050602081019050612f1e565b5050509392505050565b5f82601f830112612f6357612f62612e3c565b5b8135612f73848260208601612ee7565b91505092915050565b5f80fd5b5f67ffffffffffffffff821115612f9a57612f99612e40565b5b612fa382612da9565b9050602081019050919050565b828183375f83830152505050565b5f612fd0612fcb84612f80565b612e9e565b905082815260208101848484011115612fec57612feb612f7c565b5b612ff7848285612fb0565b509392505050565b5f82601f83011261301357613012612e3c565b5b8135613023848260208601612fbe565b91505092915050565b5f805f805f60a0868803121561304557613044612b8e565b5b5f61305288828901612bdc565b955050602061306388828901612bdc565b945050604086013567ffffffffffffffff81111561308457613083612b92565b5b61309088828901612f4f565b935050606086013567ffffffffffffffff8111156130b1576130b0612b92565b5b6130bd88828901612f4f565b925050608086013567ffffffffffffffff8111156130de576130dd612b92565b5b6130ea88828901612fff565b9150509295509295909350565b5f806040838503121561310d5761310c612b8e565b5b5f61311a85828601612c0f565b925050602061312b85828601612c0f565b9150509250929050565b5f67ffffffffffffffff82111561314f5761314e612e40565b5b602082029050602081019050919050565b5f61317261316d84613135565b612e9e565b9050808382526020820190506020840283018581111561319557613194612ee3565b5b835b818110156131be57806131aa8882612bdc565b845260208401935050602081019050613197565b5050509392505050565b5f82601f8301126131dc576131db612e3c565b5b81356131ec848260208601613160565b91505092915050565b5f806040838503121561320b5761320a612b8e565b5b5f83013567ffffffffffffffff81111561322857613227612b92565b5b613234858286016131c8565b925050602083013567ffffffffffffffff81111561325557613254612b92565b5b61326185828601612f4f565b9150509250929050565b5f81519050919050565b5f82825260208201905092915050565b5f819050602082019050919050565b61329d81612bf0565b82525050565b5f6132ae8383613294565b60208301905092915050565b5f602082019050919050565b5f6132d08261326b565b6132da8185613275565b93506132e583613285565b805f5b838110156133155781516132fc88826132a3565b9750613307836132ba565b9250506001810190506132e8565b5085935050505092915050565b5f6020820190508181035f83015261333a81846132c6565b905092915050565b61334b81612bb5565b82525050565b5f6020820190506133645f830184613342565b92915050565b61337381612d09565b811461337d575f80fd5b50565b5f8135905061338e8161336a565b92915050565b5f80604083850312156133aa576133a9612b8e565b5b5f6133b785828601612bdc565b92505060206133c885828601613380565b9150509250929050565b5f805f606084860312156133e9576133e8612b8e565b5b5f6133f686828701612c0f565b935050602061340786828701612c0f565b925050604061341886828701612c0f565b9150509250925092565b5f806040838503121561343857613437612b8e565b5b5f61344585828601612bdc565b925050602061345685828601612bdc565b9150509250929050565b5f805f806080858703121561347857613477612b8e565b5b5f61348587828801612bdc565b945050602061349687828801612bdc565b935050604085013567ffffffffffffffff8111156134b7576134b6612b92565b5b6134c387828801612f4f565b925050606085013567ffffffffffffffff8111156134e4576134e3612b92565b5b6134f087828801612f4f565b91505092959194509250565b5f805f805f60a0868803121561351557613514612b8e565b5b5f61352288828901612bdc565b955050602061353388828901612bdc565b945050604061354488828901612c0f565b935050606061355588828901612c0f565b925050608086013567ffffffffffffffff81111561357657613575612b92565b5b61358288828901612fff565b9150509295509295909350565b5f8151905061359d81612bf9565b92915050565b5f602082840312156135b8576135b7612b8e565b5b5f6135c58482850161358f565b91505092915050565b5f815190506135dc81612bc6565b92915050565b5f602082840312156135f7576135f6612b8e565b5b5f613604848285016135ce565b91505092915050565b5f67ffffffffffffffff82111561362757613626612e40565b5b61363082612da9565b9050602081019050919050565b5f61364f61364a8461360d565b612e9e565b90508281526020810184848401111561366b5761366a612f7c565b5b613676848285612d81565b509392505050565b5f82601f83011261369257613691612e3c565b5b81516136a284826020860161363d565b91505092915050565b5f602082840312156136c0576136bf612b8e565b5b5f82015167ffffffffffffffff8111156136dd576136dc612b92565b5b6136e98482850161367e565b91505092915050565b5f6040820190506137055f830185613342565b6137126020830184613342565b9392505050565b5f60408201905061372c5f830185613342565b6137396020830184612c61565b9392505050565b5f6040820190506137535f830185612c61565b6137606020830184612c61565b9392505050565b7f6163636f756e747320616e6420696473206c656e677468206d69736d617463685f82015250565b5f61379b602083612d71565b91506137a682613767565b602082019050919050565b5f6020820190508181035f8301526137c88161378f565b9050919050565b7f4e487b71000000000000000000000000000000000000000000000000000000005f52603260045260245ffd5b7f4e487b71000000000000000000000000000000000000000000000000000000005f52601160045260245ffd5b5f61383382612bf0565b91507fffffffffffffffffffffffffffffffffffffffffffffffffffffffffffffffff8203613865576138646137fc565b5b600182019050919050565b5f6060820190506138835f830186613342565b6138906020830185613342565b61389d6040830184612c61565b949350505050565b7f496e73756666696369656e7420436173696e6f436869702062616c616e6365005f82015250565b5f6138d9601f83612d71565b91506138e4826138a5565b602082019050919050565b5f6020820190508181035f830152613906816138cd565b9050919050565b5f8151905061391b8161336a565b92915050565b5f6020828403121561393657613935612b8e565b5b5f6139438482850161390d565b91505092915050565b5f819050919050565b61396661396182612bf0565b61394c565b82525050565b5f8160601b9050919050565b5f6139828261396c565b9050919050565b5f61399382613978565b9050919050565b6139ab6139a682612bb5565b613989565b82525050565b5f6139bc8286613955565b6020820191506139cc8285613955565b6020820191506139dc828461399a565b601482019150819050949350505050565b7f4e487b71000000000000000000000000000000000000000000000000000000005f52601260045260245ffd5b5f613a2482612bf0565b9150613a2f83612bf0565b925082613a3f57613a3e6139ed565b5b828206905092915050565b5f613a5482612bf0565b9150613a5f83612bf0565b9250828201905080821115613a7757613a766137fc565b5b92915050565b5f613a8782612bf0565b9150613a9283612bf0565b9250828202613aa081612bf0565b91508282048414831517613ab757613ab66137fc565b5b5092915050565b7f496e73756666696369656e7420436173696e6f4368697020696e206f776e65725f82015250565b5f613af2602083612d71565b9150613afd82613abe565b602082019050919050565b5f6020820190508181035f830152613b1f81613ae6565b9050919050565b7f4f6e6c7920746865206f776e65722063616e20776974686472617720455448005f82015250565b5f613b5a601f83612d71565b9150613b6582613b26565b602082019050919050565b5f6020820190508181035f830152613b8781613b4e565b9050919050565b7f49447320616e6420616d6f756e7473206c656e677468206d69736d61746368005f82015250565b5f613bc2601f83612d71565b9150613bcd82613b8e565b602082019050919050565b5f6020820190508181035f830152613bef81613bb6565b9050919050565b7f496e73756666696369656e74204552432d32302062616c616e636500000000005f82015250565b5f613c2a601b83612d71565b9150613c3582613bf6565b602082019050919050565b5f6020820190508181035f830152613c5781613c1e565b9050919050565b7f43616e206f6e6c79207472616e73666572206f6e65204552432d37323120746f5f8201527f6b656e20617420612074696d6500000000000000000000000000000000000000602082015250565b5f613cb8602d83612d71565b9150613cc382613c5e565b604082019050919050565b5f6020820190508181035f830152613ce581613cac565b9050919050565b7f4552432d37323120746f6b656e206e6f74206f776e65642062792073656e64655f8201527f7200000000000000000000000000000000000000000000000000000000000000602082015250565b5f613d46602183612d71565b9150613d5182613cec565b604082019050919050565b5f6020820190508181035f830152613d7381613d3a565b9050919050565b7f496e76616c696420746f6b656e207479706500000000000000000000000000005f82015250565b5f613dae601283612d71565b9150613db982613d7a565b602082019050919050565b5f6020820190508181035f830152613ddb81613da2565b9050919050565b7f4e4654206e6f7420666f722073616c65206f7220696e76616c696420746f6b655f8201527f6e20494400000000000000000000000000000000000000000000000000000000602082015250565b5f613e3c602483612d71565b9150613e4782613de2565b604082019050919050565b5f6020820190508181035f830152613e6981613e30565b9050919050565b5f60ff82169050919050565b613e8581613e70565b8114613e8f575f80fd5b50565b5f81519050613ea081613e7c565b92915050565b5f60208284031215613ebb57613eba612b8e565b5b5f613ec884828501613e92565b91505092915050565b5f8160011c9050919050565b5f808291508390505b6001851115613f2657808604811115613f0257613f016137fc565b5b6001851615613f115780820291505b8081029050613f1f85613ed1565b9450613ee6565b94509492505050565b5f82613f3e5760019050613ff9565b81613f4b575f9050613ff9565b8160018114613f615760028114613f6b57613f9a565b6001915050613ff9565b60ff841115613f7d57613f7c6137fc565b5b8360020a915084821115613f9457613f936137fc565b5b50613ff9565b5060208310610133831016604e8410600b8410161715613fcf5782820a905083811115613fca57613fc96137fc565b5b613ff9565b613fdc8484846001613edd565b92509050818404811115613ff357613ff26137fc565b5b81810290505b9392505050565b5f61400a82612bf0565b915061401583613e70565b92506140427fffffffffffffffffffffffffffffffffffffffffffffffffffffffffffffffff8484613f2f565b905092915050565b5f61405482612bf0565b915061405f83612bf0565b92508261406f5761406e6139ed565b5b828204905092915050565b7f4e6f7420656e6f75676820455243323020746f6b656e7320746f2062757920745f8201527f6865204e46540000000000000000000000000000000000000000000000000000602082015250565b5f6140d4602683612d71565b91506140df8261407a565b604082019050919050565b5f6020820190508181035f830152614101816140c8565b9050919050565b7f43616e6e6f742062757920796f7572206f776e204e46540000000000000000005f82015250565b5f61413c601783612d71565b915061414782614108565b602082019050919050565b5f6020820190508181035f83015261416981614130565b9050919050565b5f819050919050565b5f819050919050565b5f61419c61419761419284614170565b614179565b612bf0565b9050919050565b6141ac81614182565b82525050565b5f6040820190506141c55f830185612c61565b6141d260208301846141a3565b9392505050565b7f4e487b71000000000000000000000000000000000000000000000000000000005f52602260045260245ffd5b5f600282049050600182168061421d57607f821691505b6020821081036142305761422f6141d9565b5b50919050565b5f6080820190506142495f830187613342565b6142566020830186612c61565b6142636040830185612c61565b6142706060830184612c61565b95945050505050565b5f6040820190508181035f83015261429181856132c6565b905081810360208301526142a581846132c6565b90509392505050565b5f81519050919050565b5f82825260208201905092915050565b5f6142d2826142ae565b6142dc81856142b8565b93506142ec818560208601612d81565b6142f581612da9565b840191505092915050565b5f60a0820190506143135f830188613342565b6143206020830187613342565b61432d6040830186612c61565b61433a6060830185612c61565b818103608083015261434c81846142c8565b90509695505050505050565b5f8151905061436681612cb4565b92915050565b5f6020828403121561438157614380612b8e565b5b5f61438e84828501614358565b91505092915050565b5f60a0820190506143aa5f830188613342565b6143b76020830187613342565b81810360408301526143c981866132c6565b905081810360608301526143dd81856132c6565b905081810360808301526143f181846142c8565b9050969550505050505056fea264697066735822122058d23d30d11c9167a8b61c1f0f9f0efd757f0a0941046e9e90ae746b265de33064736f6c63430008140033",
  "immutableReferences": {},
  "source": "// SPDX-License-Identifier: MIT\r\npragma solidity ^0.8.20;\r\n\r\nimport \"@openzeppelin/contracts/token/ERC1155/ERC1155.sol\";\r\nimport \"./CasinoChip.sol\"; // Your ERC20 contract\r\nimport \"./CasinoNFT.sol\"; // Your ERC721 contract\r\n\r\ncontract CasinoItems is ERC1155 {\r\n    CasinoChip private casinoChip; // Instance of ERC20 contract\r\n    CasinoNFT private casinoNFT; // Instance of ERC721 contract\r\n\r\n    // Unique IDs for different types of tokens\r\n    uint256 private constant CHIP_ID = 1;\r\n    uint256 private constant NFT_ID = 2;\r\n    uint256 private seed = 1234;\r\n    address public owner;\r\n\r\n    constructor(\r\n        address payable _casinoChipAddress,\r\n        address _casinoNFTAddress\r\n    ) ERC1155(\"Casino1155\") {\r\n        owner = msg.sender;\r\n        casinoChip = CasinoChip(_casinoChipAddress);\r\n        casinoNFT = CasinoNFT(_casinoNFTAddress);\r\n    }\r\n\r\n    function approveCasinoChip(uint256 amount) external {\r\n        casinoChip.Approve(msg.sender, address(this), amount);\r\n    }\r\n\r\n    function approveCasinoNFT(address ownerNFT) external {\r\n        casinoNFT._approveContract(ownerNFT, address(this));\r\n    }\r\n\r\n    // Updated mint function with only owner access\r\n    // function mint(address to, uint256 id, uint256 amount, string memory tokenURI) public {\r\n    //     require(msg.sender == owner, \"Only the owner can mint\");\r\n    //     if (id == CHIP_ID) {\r\n    //         casinoChip.mint(to, amount); // Mint ERC20 tokens\r\n    //     } else if (id == NFT_ID) {\r\n    //         casinoNFT.mintNFT(to, tokenURI); // Mint ERC721 tokens\r\n    //     }\r\n    // }\r\n    function uri(uint256 tokenId) public view override returns (string memory) {\r\n        if (tokenId >= NFT_ID) {\r\n            // Assuming NFT_ID and upwards are for ERC-721 tokens\r\n            return casinoNFT.tokenURI(tokenId); // Directly get the URI from the CasinoNFT contract\r\n        } else {\r\n            return super.uri(tokenId); // Or return a default URI\r\n        }\r\n    }\r\n\r\n    // Custom balanceOf function\r\n    function balanceOf(\r\n        address account,\r\n        uint256 id\r\n    ) public view override returns (uint256) {\r\n        if (id == CHIP_ID) {\r\n            // Return balance from CasinoChip (ERC20) contract\r\n            return casinoChip.balanceOf(account);\r\n        } else if (id >= NFT_ID) {\r\n            // For ERC-721, return 1 if owned, 0 if not\r\n            // This requires iterating through NFTs or maintaining a mapping\r\n            // Here, we assume a simple case where NFT_ID directly maps to a tokenId\r\n            return casinoNFT.ownerOf(id) == account ? 1 : 0;\r\n        } else {\r\n            super.balanceOf(account, id);\r\n        }\r\n    }\r\n\r\n    // Custom balanceOfBatch function\r\n    function balanceOfBatch(\r\n        address[] memory accounts,\r\n        uint256[] memory ids\r\n    ) public view override returns (uint256[] memory) {\r\n        require(\r\n            accounts.length == ids.length,\r\n            \"accounts and ids length mismatch\"\r\n        );\r\n\r\n        uint256[] memory batchBalances = new uint256[](accounts.length);\r\n\r\n        for (uint256 i = 0; i < accounts.length; ++i) {\r\n            batchBalances[i] = balanceOf(accounts[i], ids[i]);\r\n        }\r\n\r\n        return batchBalances;\r\n    }\r\n\r\n    function buyNFTWithERC20(uint256 tokenId, uint256 erc20Amount) public {\r\n        uint256 nftPrice = casinoNFT.tokenPrices(tokenId);\r\n        require(nftPrice > 0, \"NFT not for sale or invalid token ID\");\r\n        require(\r\n            erc20Amount >=\r\n                (nftPrice / casinoChip.tokenPrice()) *\r\n                    10 ** casinoChip.decimals(),\r\n            \"Not enough ERC20 tokens to buy the NFT\"\r\n        );\r\n\r\n        address nftOwner = casinoNFT.ownerOf(tokenId);\r\n        require(nftOwner != msg.sender, \"Cannot buy your own NFT\");\r\n\r\n        // Transfer ERC20 tokens from buyer to NFT owner\r\n        casinoChip.transferFrom(msg.sender, nftOwner, erc20Amount);\r\n\r\n        // Transfer NFT ownership from current owner to buyer\r\n        casinoNFT.safeTransferFrom(nftOwner, msg.sender, tokenId);\r\n\r\n        // Optionally, reset the NFT price or perform any other post-purchase logic\r\n        casinoNFT.setPrice(tokenId, 0);\r\n    }\r\n\r\n    function rollDice(\r\n        uint256 betAmount,\r\n        uint256 chosenNumber,\r\n        uint256 userProvidedSeed\r\n    ) public {\r\n        require(\r\n            casinoChip.balanceOf(msg.sender) >= betAmount,\r\n            \"Insufficient CasinoChip balance\"\r\n        );\r\n        casinoChip.transferFrom(msg.sender, casinoChip.owner(), betAmount);\r\n\r\n        // Update seed with user input and block difficulty (can also use timestamp)\r\n        seed = uint256(\r\n            keccak256(abi.encodePacked(seed, userProvidedSeed, msg.sender))\r\n        );\r\n        seed =\r\n            uint(\r\n                keccak256(abi.encodePacked(block.timestamp, seed, msg.sender))\r\n            ) %\r\n            100;\r\n\r\n        uint256 winningNumber = (seed % 6) + 1;\r\n\r\n        if (winningNumber == chosenNumber) {\r\n            uint256 reward = betAmount * 5;\r\n            require(\r\n                casinoChip.balanceOf(casinoChip.owner()) >= reward,\r\n                \"Insufficient CasinoChip in owner\"\r\n            );\r\n            casinoChip.transferFrom(casinoChip.owner(), msg.sender, reward);\r\n        }\r\n        // In case of loss, the betAmount is already transferred to the contract\r\n    }\r\n\r\n    function buyTokens() external payable {\r\n        casinoChip.buyTokens{value: msg.value}(msg.sender);\r\n    }\r\n\r\n    function withdrawTokens(uint256 tokenAmount) external {\r\n        casinoChip.withdrawTokens(msg.sender, tokenAmount);\r\n    }\r\n\r\n    function transferTokens(address recipient, uint256 amount) external {\r\n        casinoChip.transferTokens(msg.sender, recipient, amount);\r\n    }\r\n\r\n    function setPriceofNFT(uint256 tokenId, uint256 price) public {\r\n        casinoNFT.setPrice(tokenId, price);\r\n    }\r\n\r\n    function buyNFTWithETH(uint256 tokenId) public payable {\r\n        casinoNFT.buyNFT{value: msg.value}(tokenId);\r\n    }\r\n\r\n    // Withdraw ETH (similar to your existing contracts)\r\n    function withdrawETH() external {\r\n        require(msg.sender == owner, \"Only the owner can withdraw ETH\");\r\n        payable(owner).transfer(address(this).balance);\r\n        casinoChip.withdrawETH(msg.sender);\r\n    }\r\n\r\n    // Custom batch transfer function for represented ERC-20 and ERC-721 tokens\r\n    function customSafeBatchTransferFrom(\r\n        address from,\r\n        address to,\r\n        uint256[] memory ids,\r\n        uint256[] memory amounts\r\n    ) public {\r\n        require(\r\n            ids.length == amounts.length,\r\n            \"IDs and amounts length mismatch\"\r\n        );\r\n\r\n        for (uint256 i = 0; i < ids.length; i++) {\r\n            uint256 id = ids[i];\r\n            uint256 amount = amounts[i];\r\n\r\n            if (id == CHIP_ID) {\r\n                // Logic for transferring the represented ERC-20 tokens\r\n                require(\r\n                    casinoChip.balanceOf(from) >= amount,\r\n                    \"Insufficient ERC-20 balance\"\r\n                );\r\n                casinoChip.transferFrom(from, to, amount);\r\n            } else if (id >= NFT_ID) {\r\n                // Logic for transferring the represented ERC-721 token\r\n                require(\r\n                    amount == 1,\r\n                    \"Can only transfer one ERC-721 token at a time\"\r\n                );\r\n                require(\r\n                    casinoNFT.ownerOf(id) == from,\r\n                    \"ERC-721 token not owned by sender\"\r\n                );\r\n                casinoNFT.safeTransferFrom(from, to, id);\r\n            } else {\r\n                revert(\"Invalid token type\");\r\n            }\r\n        }\r\n\r\n        // Optionally, emit a custom event or handle any additional logic\r\n    }\r\n}\r\n",
  "sourcePath": "/Users/ajaym1/casino-dapp/casino-contract/contracts/CasinoMain.sol",
  "compiler": {
    "name": "solc",
    "version": "0.8.20+commit.a1b79de6.Emscripten.clang"
  },
  "schemaVersion": "3.4.16",
  "updatedAt": "2023-12-04T05:42:37.532Z",
  "networkType": "ethereum",
  "devdoc": {
    "errors": {
      "ERC1155InsufficientBalance(address,uint256,uint256,uint256)": [
        {
          "details": "Indicates an error related to the current `balance` of a `sender`. Used in transfers.",
          "params": {
            "balance": "Current balance for the interacting account.",
            "needed": "Minimum amount required to perform a transfer.",
            "sender": "Address whose tokens are being transferred.",
            "tokenId": "Identifier number of a token."
          }
        }
      ],
      "ERC1155InvalidApprover(address)": [
        {
          "details": "Indicates a failure with the `approver` of a token to be approved. Used in approvals.",
          "params": {
            "approver": "Address initiating an approval operation."
          }
        }
      ],
      "ERC1155InvalidArrayLength(uint256,uint256)": [
        {
          "details": "Indicates an array length mismatch between ids and values in a safeBatchTransferFrom operation. Used in batch transfers.",
          "params": {
            "idsLength": "Length of the array of token identifiers",
            "valuesLength": "Length of the array of token amounts"
          }
        }
      ],
      "ERC1155InvalidOperator(address)": [
        {
          "details": "Indicates a failure with the `operator` to be approved. Used in approvals.",
          "params": {
            "operator": "Address that may be allowed to operate on tokens without being their owner."
          }
        }
      ],
      "ERC1155InvalidReceiver(address)": [
        {
          "details": "Indicates a failure with the token `receiver`. Used in transfers.",
          "params": {
            "receiver": "Address to which tokens are being transferred."
          }
        }
      ],
      "ERC1155InvalidSender(address)": [
        {
          "details": "Indicates a failure with the token `sender`. Used in transfers.",
          "params": {
            "sender": "Address whose tokens are being transferred."
          }
        }
      ],
      "ERC1155MissingApprovalForAll(address,address)": [
        {
          "details": "Indicates a failure with the `operator`s approval. Used in transfers.",
          "params": {
            "operator": "Address that may be allowed to operate on tokens without being their owner.",
            "owner": "Address of the current owner of a token."
          }
        }
      ]
    },
    "events": {
      "ApprovalForAll(address,address,bool)": {
        "details": "Emitted when `account` grants or revokes permission to `operator` to transfer their tokens, according to `approved`."
      },
      "TransferBatch(address,address,address,uint256[],uint256[])": {
        "details": "Equivalent to multiple {TransferSingle} events, where `operator`, `from` and `to` are the same for all transfers."
      },
      "TransferSingle(address,address,address,uint256,uint256)": {
        "details": "Emitted when `value` amount of tokens of type `id` are transferred from `from` to `to` by `operator`."
      },
      "URI(string,uint256)": {
        "details": "Emitted when the URI for token type `id` changes to `value`, if it is a non-programmatic URI. If an {URI} event was emitted for `id`, the standard https://eips.ethereum.org/EIPS/eip-1155#metadata-extensions[guarantees] that `value` will equal the value returned by {IERC1155MetadataURI-uri}."
      }
    },
    "kind": "dev",
    "methods": {
      "balanceOf(address,uint256)": {
        "details": "See {IERC1155-balanceOf}."
      },
      "balanceOfBatch(address[],uint256[])": {
        "details": "See {IERC1155-balanceOfBatch}. Requirements: - `accounts` and `ids` must have the same length."
      },
      "isApprovedForAll(address,address)": {
        "details": "See {IERC1155-isApprovedForAll}."
      },
      "safeBatchTransferFrom(address,address,uint256[],uint256[],bytes)": {
        "details": "See {IERC1155-safeBatchTransferFrom}."
      },
      "safeTransferFrom(address,address,uint256,uint256,bytes)": {
        "details": "See {IERC1155-safeTransferFrom}."
      },
      "setApprovalForAll(address,bool)": {
        "details": "See {IERC1155-setApprovalForAll}."
      },
      "supportsInterface(bytes4)": {
        "details": "See {IERC165-supportsInterface}."
      }
    },
    "version": 1
  },
  "userdoc": {
    "kind": "user",
    "methods": {},
    "version": 1
  }
}