{
  "contractName": "CasinoChip",
  "abi": [
    {
      "inputs": [
        {
          "internalType": "uint256",
          "name": "_initialsuppy",
          "type": "uint256"
        }
      ],
      "stateMutability": "nonpayable",
      "type": "constructor"
    },
    {
      "inputs": [
        {
          "internalType": "address",
          "name": "spender",
          "type": "address"
        },
        {
          "internalType": "uint256",
          "name": "allowance",
          "type": "uint256"
        },
        {
          "internalType": "uint256",
          "name": "needed",
          "type": "uint256"
        }
      ],
      "name": "ERC20InsufficientAllowance",
      "type": "error"
    },
    {
      "inputs": [
        {
          "internalType": "address",
          "name": "sender",
          "type": "address"
        },
        {
          "internalType": "uint256",
          "name": "balance",
          "type": "uint256"
        },
        {
          "internalType": "uint256",
          "name": "needed",
          "type": "uint256"
        }
      ],
      "name": "ERC20InsufficientBalance",
      "type": "error"
    },
    {
      "inputs": [
        {
          "internalType": "address",
          "name": "approver",
          "type": "address"
        }
      ],
      "name": "ERC20InvalidApprover",
      "type": "error"
    },
    {
      "inputs": [
        {
          "internalType": "address",
          "name": "receiver",
          "type": "address"
        }
      ],
      "name": "ERC20InvalidReceiver",
      "type": "error"
    },
    {
      "inputs": [
        {
          "internalType": "address",
          "name": "sender",
          "type": "address"
        }
      ],
      "name": "ERC20InvalidSender",
      "type": "error"
    },
    {
      "inputs": [
        {
          "internalType": "address",
          "name": "spender",
          "type": "address"
        }
      ],
      "name": "ERC20InvalidSpender",
      "type": "error"
    },
    {
      "anonymous": false,
      "inputs": [
        {
          "indexed": true,
          "internalType": "address",
          "name": "owner",
          "type": "address"
        },
        {
          "indexed": true,
          "internalType": "address",
          "name": "spender",
          "type": "address"
        },
        {
          "indexed": false,
          "internalType": "uint256",
          "name": "value",
          "type": "uint256"
        }
      ],
      "name": "Approval",
      "type": "event"
    },
    {
      "anonymous": false,
      "inputs": [
        {
          "indexed": true,
          "internalType": "address",
          "name": "from",
          "type": "address"
        },
        {
          "indexed": true,
          "internalType": "address",
          "name": "to",
          "type": "address"
        },
        {
          "indexed": false,
          "internalType": "uint256",
          "name": "value",
          "type": "uint256"
        }
      ],
      "name": "Transfer",
      "type": "event"
    },
    {
      "inputs": [
        {
          "internalType": "address",
          "name": "owner",
          "type": "address"
        },
        {
          "internalType": "address",
          "name": "spender",
          "type": "address"
        }
      ],
      "name": "allowance",
      "outputs": [
        {
          "internalType": "uint256",
          "name": "",
          "type": "uint256"
        }
      ],
      "stateMutability": "view",
      "type": "function",
      "constant": true
    },
    {
      "inputs": [
        {
          "internalType": "address",
          "name": "spender",
          "type": "address"
        },
        {
          "internalType": "uint256",
          "name": "value",
          "type": "uint256"
        }
      ],
      "name": "approve",
      "outputs": [
        {
          "internalType": "bool",
          "name": "",
          "type": "bool"
        }
      ],
      "stateMutability": "nonpayable",
      "type": "function"
    },
    {
      "inputs": [
        {
          "internalType": "address",
          "name": "account",
          "type": "address"
        }
      ],
      "name": "balanceOf",
      "outputs": [
        {
          "internalType": "uint256",
          "name": "",
          "type": "uint256"
        }
      ],
      "stateMutability": "view",
      "type": "function",
      "constant": true
    },
    {
      "inputs": [],
      "name": "decimals",
      "outputs": [
        {
          "internalType": "uint8",
          "name": "",
          "type": "uint8"
        }
      ],
      "stateMutability": "view",
      "type": "function",
      "constant": true
    },
    {
      "inputs": [],
      "name": "name",
      "outputs": [
        {
          "internalType": "string",
          "name": "",
          "type": "string"
        }
      ],
      "stateMutability": "view",
      "type": "function",
      "constant": true
    },
    {
      "inputs": [],
      "name": "owner",
      "outputs": [
        {
          "internalType": "address",
          "name": "",
          "type": "address"
        }
      ],
      "stateMutability": "view",
      "type": "function",
      "constant": true
    },
    {
      "inputs": [],
      "name": "symbol",
      "outputs": [
        {
          "internalType": "string",
          "name": "",
          "type": "string"
        }
      ],
      "stateMutability": "view",
      "type": "function",
      "constant": true
    },
    {
      "inputs": [],
      "name": "tokenPrice",
      "outputs": [
        {
          "internalType": "uint256",
          "name": "",
          "type": "uint256"
        }
      ],
      "stateMutability": "view",
      "type": "function",
      "constant": true
    },
    {
      "inputs": [],
      "name": "totalSupply",
      "outputs": [
        {
          "internalType": "uint256",
          "name": "",
          "type": "uint256"
        }
      ],
      "stateMutability": "view",
      "type": "function",
      "constant": true
    },
    {
      "inputs": [
        {
          "internalType": "address",
          "name": "to",
          "type": "address"
        },
        {
          "internalType": "uint256",
          "name": "value",
          "type": "uint256"
        }
      ],
      "name": "transfer",
      "outputs": [
        {
          "internalType": "bool",
          "name": "",
          "type": "bool"
        }
      ],
      "stateMutability": "nonpayable",
      "type": "function"
    },
    {
      "inputs": [
        {
          "internalType": "address",
          "name": "from",
          "type": "address"
        },
        {
          "internalType": "address",
          "name": "to",
          "type": "address"
        },
        {
          "internalType": "uint256",
          "name": "value",
          "type": "uint256"
        }
      ],
      "name": "transferFrom",
      "outputs": [
        {
          "internalType": "bool",
          "name": "",
          "type": "bool"
        }
      ],
      "stateMutability": "nonpayable",
      "type": "function"
    },
    {
      "stateMutability": "payable",
      "type": "receive",
      "payable": true
    },
    {
      "inputs": [
        {
          "internalType": "address",
          "name": "sender",
          "type": "address"
        }
      ],
      "name": "buyTokens",
      "outputs": [],
      "stateMutability": "payable",
      "type": "function",
      "payable": true
    },
    {
      "inputs": [
        {
          "internalType": "address",
          "name": "Own",
          "type": "address"
        },
        {
          "internalType": "address",
          "name": "id",
          "type": "address"
        },
        {
          "internalType": "uint256",
          "name": "val",
          "type": "uint256"
        }
      ],
      "name": "Approve",
      "outputs": [],
      "stateMutability": "nonpayable",
      "type": "function"
    },
    {
      "inputs": [
        {
          "internalType": "address",
          "name": "sender",
          "type": "address"
        },
        {
          "internalType": "uint256",
          "name": "tokenAmount",
          "type": "uint256"
        }
      ],
      "name": "withdrawTokens",
      "outputs": [],
      "stateMutability": "nonpayable",
      "type": "function"
    },
    {
      "inputs": [
        {
          "internalType": "address",
          "name": "sender",
          "type": "address"
        },
        {
          "internalType": "address",
          "name": "recipient",
          "type": "address"
        },
        {
          "internalType": "uint256",
          "name": "amount",
          "type": "uint256"
        }
      ],
      "name": "transferTokens",
      "outputs": [],
      "stateMutability": "nonpayable",
      "type": "function"
    },
    {
      "inputs": [
        {
          "internalType": "address",
          "name": "sender",
          "type": "address"
        }
      ],
      "name": "withdrawETH",
      "outputs": [],
      "stateMutability": "nonpayable",
      "type": "function"
    }
  ],
  "bytecode": "0x608060405234801562000010575f80fd5b50604051620021be380380620021be83398181016040528101906200003691906200043d565b6040518060400160405280600a81526020017f436173696e6f43686970000000000000000000000000000000000000000000008152506040518060400160405280600581526020017f43434849500000000000000000000000000000000000000000000000000000008152508160039081620000b39190620006c8565b508060049081620000c59190620006c8565b5050503360055f6101000a81548173ffffffffffffffffffffffffffffffffffffffff021916908373ffffffffffffffffffffffffffffffffffffffff16021790555062000144336200011d6200014b60201b60201c565b600a6200012b919062000935565b8362000138919062000985565b6200015360201b60201c565b5062000ace565b5f6012905090565b5f73ffffffffffffffffffffffffffffffffffffffff168273ffffffffffffffffffffffffffffffffffffffff1603620001c6575f6040517fec442f05000000000000000000000000000000000000000000000000000000008152600401620001bd919062000a12565b60405180910390fd5b620001d95f8383620001dd60201b60201c565b5050565b5f73ffffffffffffffffffffffffffffffffffffffff168373ffffffffffffffffffffffffffffffffffffffff160362000231578060025f82825462000224919062000a2d565b9250508190555062000302565b5f805f8573ffffffffffffffffffffffffffffffffffffffff1673ffffffffffffffffffffffffffffffffffffffff1681526020019081526020015f2054905081811015620002bd578381836040517fe450d38c000000000000000000000000000000000000000000000000000000008152600401620002b49392919062000a78565b60405180910390fd5b8181035f808673ffffffffffffffffffffffffffffffffffffffff1673ffffffffffffffffffffffffffffffffffffffff1681526020019081526020015f2081905550505b5f73ffffffffffffffffffffffffffffffffffffffff168273ffffffffffffffffffffffffffffffffffffffff16036200034b578060025f828254039250508190555062000395565b805f808473ffffffffffffffffffffffffffffffffffffffff1673ffffffffffffffffffffffffffffffffffffffff1681526020019081526020015f205f82825401925050819055505b8173ffffffffffffffffffffffffffffffffffffffff168373ffffffffffffffffffffffffffffffffffffffff167fddf252ad1be2c89b69c2b068fc378daa952ba7f163c4a11628f55a4df523b3ef83604051620003f4919062000ab3565b60405180910390a3505050565b5f80fd5b5f819050919050565b620004198162000405565b811462000424575f80fd5b50565b5f8151905062000437816200040e565b92915050565b5f6020828403121562000455576200045462000401565b5b5f620004648482850162000427565b91505092915050565b5f81519050919050565b7f4e487b71000000000000000000000000000000000000000000000000000000005f52604160045260245ffd5b7f4e487b71000000000000000000000000000000000000000000000000000000005f52602260045260245ffd5b5f6002820490506001821680620004e957607f821691505b602082108103620004ff57620004fe620004a4565b5b50919050565b5f819050815f5260205f209050919050565b5f6020601f8301049050919050565b5f82821b905092915050565b5f60088302620005637fffffffffffffffffffffffffffffffffffffffffffffffffffffffffffffffff8262000526565b6200056f868362000526565b95508019841693508086168417925050509392505050565b5f819050919050565b5f620005b0620005aa620005a48462000405565b62000587565b62000405565b9050919050565b5f819050919050565b620005cb8362000590565b620005e3620005da82620005b7565b84845462000532565b825550505050565b5f90565b620005f9620005eb565b62000606818484620005c0565b505050565b5b818110156200062d57620006215f82620005ef565b6001810190506200060c565b5050565b601f8211156200067c57620006468162000505565b620006518462000517565b8101602085101562000661578190505b62000679620006708562000517565b8301826200060b565b50505b505050565b5f82821c905092915050565b5f6200069e5f198460080262000681565b1980831691505092915050565b5f620006b883836200068d565b9150826002028217905092915050565b620006d3826200046d565b67ffffffffffffffff811115620006ef57620006ee62000477565b5b620006fb8254620004d1565b6200070882828562000631565b5f60209050601f8311600181146200073e575f841562000729578287015190505b620007358582620006ab565b865550620007a4565b601f1984166200074e8662000505565b5f5b82811015620007775784890151825560018201915060208501945060208101905062000750565b8683101562000797578489015162000793601f8916826200068d565b8355505b6001600288020188555050505b505050505050565b7f4e487b71000000000000000000000000000000000000000000000000000000005f52601160045260245ffd5b5f8160011c9050919050565b5f808291508390505b600185111562000836578086048111156200080e576200080d620007ac565b5b60018516156200081e5780820291505b80810290506200082e85620007d9565b9450620007ee565b94509492505050565b5f8262000850576001905062000922565b816200085f575f905062000922565b81600181146200087857600281146200088357620008b9565b600191505062000922565b60ff841115620008985762000897620007ac565b5b8360020a915084821115620008b257620008b1620007ac565b5b5062000922565b5060208310610133831016604e8410600b8410161715620008f35782820a905083811115620008ed57620008ec620007ac565b5b62000922565b620009028484846001620007e5565b925090508184048111156200091c576200091b620007ac565b5b81810290505b9392505050565b5f60ff82169050919050565b5f620009418262000405565b91506200094e8362000929565b92506200097d7fffffffffffffffffffffffffffffffffffffffffffffffffffffffffffffffff84846200083f565b905092915050565b5f620009918262000405565b91506200099e8362000405565b9250828202620009ae8162000405565b91508282048414831517620009c857620009c7620007ac565b5b5092915050565b5f73ffffffffffffffffffffffffffffffffffffffff82169050919050565b5f620009fa82620009cf565b9050919050565b62000a0c81620009ee565b82525050565b5f60208201905062000a275f83018462000a01565b92915050565b5f62000a398262000405565b915062000a468362000405565b925082820190508082111562000a615762000a60620007ac565b5b92915050565b62000a728162000405565b82525050565b5f60608201905062000a8d5f83018662000a01565b62000a9c602083018562000a67565b62000aab604083018462000a67565b949350505050565b5f60208201905062000ac85f83018462000a67565b92915050565b6116e28062000adc5f395ff3fe6080604052600436106100f6575f3560e01c806370a0823111610089578063a64b6e5f11610058578063a64b6e5f14610329578063a9059cbb14610351578063dd62ed3e1461038d578063ec8ac4d8146103c9576100fd565b806370a082311461026f5780637ff9b596146102ab5780638da5cb5b146102d557806395d89b41146102ff576100fd565b806323b872dd116100c557806323b872dd146101b9578063313ce567146101f5578063690d83201461021f5780636e11fb1b14610247576100fd565b806306b091f91461010157806306fdde0314610129578063095ea7b31461015357806318160ddd1461018f576100fd565b366100fd57005b5f80fd5b34801561010c575f80fd5b5061012760048036038101906101229190610fab565b6103e5565b005b348015610134575f80fd5b5061013d6104d4565b60405161014a9190611073565b60405180910390f35b34801561015e575f80fd5b5061017960048036038101906101749190610fab565b610564565b60405161018691906110ad565b60405180910390f35b34801561019a575f80fd5b506101a3610586565b6040516101b091906110d5565b60405180910390f35b3480156101c4575f80fd5b506101df60048036038101906101da91906110ee565b61058f565b6040516101ec91906110ad565b60405180910390f35b348015610200575f80fd5b506102096105bd565b6040516102169190611159565b60405180910390f35b34801561022a575f80fd5b5061024560048036038101906102409190611172565b6105c5565b005b348015610252575f80fd5b5061026d600480360381019061026891906110ee565b6106bc565b005b34801561027a575f80fd5b5061029560048036038101906102909190611172565b6106cc565b6040516102a291906110d5565b60405180910390f35b3480156102b6575f80fd5b506102bf610711565b6040516102cc91906110d5565b60405180910390f35b3480156102e0575f80fd5b506102e961071c565b6040516102f691906111ac565b60405180910390f35b34801561030a575f80fd5b50610313610741565b6040516103209190611073565b60405180910390f35b348015610334575f80fd5b5061034f600480360381019061034a91906110ee565b6107d1565b005b34801561035c575f80fd5b5061037760048036038101906103729190610fab565b6107e1565b60405161038491906110ad565b60405180910390f35b348015610398575f80fd5b506103b360048036038101906103ae91906111c5565b610803565b6040516103c091906110d5565b60405180910390f35b6103e360048036038101906103de9190611172565b610885565b005b806103ef836106cc565b1015610430576040517f08c379a00000000000000000000000000000000000000000000000000000000081526004016104279061124d565b60405180910390fd5b61045c8260055f9054906101000a900473ffffffffffffffffffffffffffffffffffffffff1683610997565b8173ffffffffffffffffffffffffffffffffffffffff166108fc662386f26fc100006104866105bd565b600a61049291906113c7565b8461049d919061143e565b6104a7919061146e565b90811502906040515f60405180830381858888f193505050501580156104cf573d5f803e3d5ffd5b505050565b6060600380546104e3906114dc565b80601f016020809104026020016040519081016040528092919081815260200182805461050f906114dc565b801561055a5780601f106105315761010080835404028352916020019161055a565b820191905f5260205f20905b81548152906001019060200180831161053d57829003601f168201915b5050505050905090565b5f8061056e610a87565b905061057b818585610a8e565b600191505092915050565b5f600254905090565b5f80610599610a87565b90506105a6858285610aa0565b6105b1858585610997565b60019150509392505050565b5f6012905090565b60055f9054906101000a900473ffffffffffffffffffffffffffffffffffffffff1673ffffffffffffffffffffffffffffffffffffffff168173ffffffffffffffffffffffffffffffffffffffff1614610654576040517f08c379a000000000000000000000000000000000000000000000000000000000815260040161064b90611556565b60405180910390fd5b60055f9054906101000a900473ffffffffffffffffffffffffffffffffffffffff1673ffffffffffffffffffffffffffffffffffffffff166108fc4790811502906040515f60405180830381858888f193505050501580156106b8573d5f803e3d5ffd5b5050565b6106c7838383610a8e565b505050565b5f805f8373ffffffffffffffffffffffffffffffffffffffff1673ffffffffffffffffffffffffffffffffffffffff1681526020019081526020015f20549050919050565b662386f26fc1000081565b60055f9054906101000a900473ffffffffffffffffffffffffffffffffffffffff1681565b606060048054610750906114dc565b80601f016020809104026020016040519081016040528092919081815260200182805461077c906114dc565b80156107c75780601f1061079e576101008083540402835291602001916107c7565b820191905f5260205f20905b8154815290600101906020018083116107aa57829003601f168201915b5050505050905090565b6107dc838383610997565b505050565b5f806107eb610a87565b90506107f8818585610997565b600191505092915050565b5f60015f8473ffffffffffffffffffffffffffffffffffffffff1673ffffffffffffffffffffffffffffffffffffffff1681526020019081526020015f205f8373ffffffffffffffffffffffffffffffffffffffff1673ffffffffffffffffffffffffffffffffffffffff1681526020019081526020015f2054905092915050565b5f34116108c7576040517f08c379a00000000000000000000000000000000000000000000000000000000081526004016108be906115be565b60405180910390fd5b5f6108d06105bd565b600a6108dc91906113c7565b662386f26fc10000346108ef919061143e565b6108f9919061146e565b90508061092660055f9054906101000a900473ffffffffffffffffffffffffffffffffffffffff166106cc565b1015610967576040517f08c379a000000000000000000000000000000000000000000000000000000000815260040161095e90611626565b60405180910390fd5b61099360055f9054906101000a900473ffffffffffffffffffffffffffffffffffffffff168383610997565b5050565b5f73ffffffffffffffffffffffffffffffffffffffff168373ffffffffffffffffffffffffffffffffffffffff1603610a07575f6040517f96c6fd1e0000000000000000000000000000000000000000000000000000000081526004016109fe91906111ac565b60405180910390fd5b5f73ffffffffffffffffffffffffffffffffffffffff168273ffffffffffffffffffffffffffffffffffffffff1603610a77575f6040517fec442f05000000000000000000000000000000000000000000000000000000008152600401610a6e91906111ac565b60405180910390fd5b610a82838383610b32565b505050565b5f33905090565b610a9b8383836001610d4b565b505050565b5f610aab8484610803565b90507fffffffffffffffffffffffffffffffffffffffffffffffffffffffffffffffff8114610b2c5781811015610b1d578281836040517ffb8f41b2000000000000000000000000000000000000000000000000000000008152600401610b1493929190611644565b60405180910390fd5b610b2b84848484035f610d4b565b5b50505050565b5f73ffffffffffffffffffffffffffffffffffffffff168373ffffffffffffffffffffffffffffffffffffffff1603610b82578060025f828254610b769190611679565b92505081905550610c50565b5f805f8573ffffffffffffffffffffffffffffffffffffffff1673ffffffffffffffffffffffffffffffffffffffff1681526020019081526020015f2054905081811015610c0b578381836040517fe450d38c000000000000000000000000000000000000000000000000000000008152600401610c0293929190611644565b60405180910390fd5b8181035f808673ffffffffffffffffffffffffffffffffffffffff1673ffffffffffffffffffffffffffffffffffffffff1681526020019081526020015f2081905550505b5f73ffffffffffffffffffffffffffffffffffffffff168273ffffffffffffffffffffffffffffffffffffffff1603610c97578060025f8282540392505081905550610ce1565b805f808473ffffffffffffffffffffffffffffffffffffffff1673ffffffffffffffffffffffffffffffffffffffff1681526020019081526020015f205f82825401925050819055505b8173ffffffffffffffffffffffffffffffffffffffff168373ffffffffffffffffffffffffffffffffffffffff167fddf252ad1be2c89b69c2b068fc378daa952ba7f163c4a11628f55a4df523b3ef83604051610d3e91906110d5565b60405180910390a3505050565b5f73ffffffffffffffffffffffffffffffffffffffff168473ffffffffffffffffffffffffffffffffffffffff1603610dbb575f6040517fe602df05000000000000000000000000000000000000000000000000000000008152600401610db291906111ac565b60405180910390fd5b5f73ffffffffffffffffffffffffffffffffffffffff168373ffffffffffffffffffffffffffffffffffffffff1603610e2b575f6040517f94280d62000000000000000000000000000000000000000000000000000000008152600401610e2291906111ac565b60405180910390fd5b8160015f8673ffffffffffffffffffffffffffffffffffffffff1673ffffffffffffffffffffffffffffffffffffffff1681526020019081526020015f205f8573ffffffffffffffffffffffffffffffffffffffff1673ffffffffffffffffffffffffffffffffffffffff1681526020019081526020015f20819055508015610f14578273ffffffffffffffffffffffffffffffffffffffff168473ffffffffffffffffffffffffffffffffffffffff167f8c5be1e5ebec7d5bd14f71427d1e84f3dd0314c0f7b2291e5b200ac8c7c3b92584604051610f0b91906110d5565b60405180910390a35b50505050565b5f80fd5b5f73ffffffffffffffffffffffffffffffffffffffff82169050919050565b5f610f4782610f1e565b9050919050565b610f5781610f3d565b8114610f61575f80fd5b50565b5f81359050610f7281610f4e565b92915050565b5f819050919050565b610f8a81610f78565b8114610f94575f80fd5b50565b5f81359050610fa581610f81565b92915050565b5f8060408385031215610fc157610fc0610f1a565b5b5f610fce85828601610f64565b9250506020610fdf85828601610f97565b9150509250929050565b5f81519050919050565b5f82825260208201905092915050565b5f5b83811015611020578082015181840152602081019050611005565b5f8484015250505050565b5f601f19601f8301169050919050565b5f61104582610fe9565b61104f8185610ff3565b935061105f818560208601611003565b6110688161102b565b840191505092915050565b5f6020820190508181035f83015261108b818461103b565b905092915050565b5f8115159050919050565b6110a781611093565b82525050565b5f6020820190506110c05f83018461109e565b92915050565b6110cf81610f78565b82525050565b5f6020820190506110e85f8301846110c6565b92915050565b5f805f6060848603121561110557611104610f1a565b5b5f61111286828701610f64565b935050602061112386828701610f64565b925050604061113486828701610f97565b9150509250925092565b5f60ff82169050919050565b6111538161113e565b82525050565b5f60208201905061116c5f83018461114a565b92915050565b5f6020828403121561118757611186610f1a565b5b5f61119484828501610f64565b91505092915050565b6111a681610f3d565b82525050565b5f6020820190506111bf5f83018461119d565b92915050565b5f80604083850312156111db576111da610f1a565b5b5f6111e885828601610f64565b92505060206111f985828601610f64565b9150509250929050565b7f496e73756666696369656e7420746f6b656e2062616c616e63650000000000005f82015250565b5f611237601a83610ff3565b915061124282611203565b602082019050919050565b5f6020820190508181035f8301526112648161122b565b9050919050565b7f4e487b71000000000000000000000000000000000000000000000000000000005f52601160045260245ffd5b5f8160011c9050919050565b5f808291508390505b60018511156112ed578086048111156112c9576112c861126b565b5b60018516156112d85780820291505b80810290506112e685611298565b94506112ad565b94509492505050565b5f8261130557600190506113c0565b81611312575f90506113c0565b8160018114611328576002811461133257611361565b60019150506113c0565b60ff8411156113445761134361126b565b5b8360020a91508482111561135b5761135a61126b565b5b506113c0565b5060208310610133831016604e8410600b84101617156113965782820a9050838111156113915761139061126b565b5b6113c0565b6113a384848460016112a4565b925090508184048111156113ba576113b961126b565b5b81810290505b9392505050565b5f6113d182610f78565b91506113dc8361113e565b92506114097fffffffffffffffffffffffffffffffffffffffffffffffffffffffffffffffff84846112f6565b905092915050565b7f4e487b71000000000000000000000000000000000000000000000000000000005f52601260045260245ffd5b5f61144882610f78565b915061145383610f78565b92508261146357611462611411565b5b828204905092915050565b5f61147882610f78565b915061148383610f78565b925082820261149181610f78565b915082820484148315176114a8576114a761126b565b5b5092915050565b7f4e487b71000000000000000000000000000000000000000000000000000000005f52602260045260245ffd5b5f60028204905060018216806114f357607f821691505b602082108103611506576115056114af565b5b50919050565b7f4f6e6c7920746865206f776e65722063616e20776974686472617720455448005f82015250565b5f611540601f83610ff3565b915061154b8261150c565b602082019050919050565b5f6020820190508181035f83015261156d81611534565b9050919050565b7f596f75206e65656420746f2073656e6420736f6d6520457468657200000000005f82015250565b5f6115a8601b83610ff3565b91506115b382611574565b602082019050919050565b5f6020820190508181035f8301526115d58161159c565b9050919050565b7f4e6f7420656e6f75676820746f6b656e7320617661696c61626c6500000000005f82015250565b5f611610601b83610ff3565b915061161b826115dc565b602082019050919050565b5f6020820190508181035f83015261163d81611604565b9050919050565b5f6060820190506116575f83018661119d565b61166460208301856110c6565b61167160408301846110c6565b949350505050565b5f61168382610f78565b915061168e83610f78565b92508282019050808211156116a6576116a561126b565b5b9291505056fea26469706673582212208b0cd8549d723f16c7a7cae9d73f20e1521e40503087645074c33cced2594d3a64736f6c63430008140033",
  "immutableReferences": {},
  "source": "// SPDX-License-Identifier: MIT\npragma solidity >=0.4.22 <0.9.0;\n\nimport \"@openzeppelin/contracts/token/ERC20/ERC20.sol\";\n\ncontract CasinoChip is ERC20 {\n    address public owner;\n    // token=0.01eth\n    uint256 public constant tokenPrice = 10000000000000000 wei; // Price of one token in ETH,token=0.1\n\n    constructor(uint256 _initialsuppy) ERC20(\"CasinoChip\", \"CCHIP\") {\n        owner = msg.sender;\n        _mint(msg.sender, _initialsuppy * 10 ** decimals());\n    }\n\n    // Buy tokens with ETH\n    function buyTokens(address sender) external payable {\n        require(msg.value > 0, \"You need to send some Ether\");\n        uint256 amountToBuy = (msg.value / tokenPrice) * 10 ** decimals();\n        require(balanceOf(owner) >= amountToBuy, \"Not enough tokens available\");\n        _transfer(owner, sender, amountToBuy);\n    }\n\n    function Approve(address Own, address id, uint256 val) external {\n        _approve(Own, id, val);\n    }\n\n    // Withdraw tokens and receive ETH back\n    function withdrawTokens(address sender, uint256 tokenAmount) external {\n        require(balanceOf(sender) >= tokenAmount, \"Insufficient token balance\");\n        _transfer(sender, owner, tokenAmount);\n        payable(sender).transfer((tokenAmount / 10 ** decimals()) * tokenPrice);\n    }\n\n    // Transfer tokens to another address\n    function transferTokens(\n        address sender,\n        address recipient,\n        uint256 amount\n    ) external {\n        _transfer(sender, recipient, amount);\n    }\n\n    // Allows the contract to receive ETH\n    receive() external payable {}\n\n    // Withdraw ETH from the contract (only owner)\n    function withdrawETH(address sender) external {\n        require(sender == owner, \"Only the owner can withdraw ETH\");\n        payable(owner).transfer(address(this).balance);\n    }\n}\n",
  "sourcePath": "/Users/ajaym1/casino-dapp/casino-contract/contracts/CasinoChip.sol",
  "compiler": {
    "name": "solc",
    "version": "0.8.20+commit.a1b79de6.Emscripten.clang"
  },
  "schemaVersion": "3.4.16",
  "updatedAt": "2023-12-04T05:42:37.513Z",
  "networkType": "ethereum",
  "devdoc": {
    "errors": {
      "ERC20InsufficientAllowance(address,uint256,uint256)": [
        {
          "details": "Indicates a failure with the `spender`s `allowance`. Used in transfers.",
          "params": {
            "allowance": "Amount of tokens a `spender` is allowed to operate with.",
            "needed": "Minimum amount required to perform a transfer.",
            "spender": "Address that may be allowed to operate on tokens without being their owner."
          }
        }
      ],
      "ERC20InsufficientBalance(address,uint256,uint256)": [
        {
          "details": "Indicates an error related to the current `balance` of a `sender`. Used in transfers.",
          "params": {
            "balance": "Current balance for the interacting account.",
            "needed": "Minimum amount required to perform a transfer.",
            "sender": "Address whose tokens are being transferred."
          }
        }
      ],
      "ERC20InvalidApprover(address)": [
        {
          "details": "Indicates a failure with the `approver` of a token to be approved. Used in approvals.",
          "params": {
            "approver": "Address initiating an approval operation."
          }
        }
      ],
      "ERC20InvalidReceiver(address)": [
        {
          "details": "Indicates a failure with the token `receiver`. Used in transfers.",
          "params": {
            "receiver": "Address to which tokens are being transferred."
          }
        }
      ],
      "ERC20InvalidSender(address)": [
        {
          "details": "Indicates a failure with the token `sender`. Used in transfers.",
          "params": {
            "sender": "Address whose tokens are being transferred."
          }
        }
      ],
      "ERC20InvalidSpender(address)": [
        {
          "details": "Indicates a failure with the `spender` to be approved. Used in approvals.",
          "params": {
            "spender": "Address that may be allowed to operate on tokens without being their owner."
          }
        }
      ]
    },
    "events": {
      "Approval(address,address,uint256)": {
        "details": "Emitted when the allowance of a `spender` for an `owner` is set by a call to {approve}. `value` is the new allowance."
      },
      "Transfer(address,address,uint256)": {
        "details": "Emitted when `value` tokens are moved from one account (`from`) to another (`to`). Note that `value` may be zero."
      }
    },
    "kind": "dev",
    "methods": {
      "allowance(address,address)": {
        "details": "See {IERC20-allowance}."
      },
      "approve(address,uint256)": {
        "details": "See {IERC20-approve}. NOTE: If `value` is the maximum `uint256`, the allowance is not updated on `transferFrom`. This is semantically equivalent to an infinite approval. Requirements: - `spender` cannot be the zero address."
      },
      "balanceOf(address)": {
        "details": "See {IERC20-balanceOf}."
      },
      "decimals()": {
        "details": "Returns the number of decimals used to get its user representation. For example, if `decimals` equals `2`, a balance of `505` tokens should be displayed to a user as `5.05` (`505 / 10 ** 2`). Tokens usually opt for a value of 18, imitating the relationship between Ether and Wei. This is the default value returned by this function, unless it's overridden. NOTE: This information is only used for _display_ purposes: it in no way affects any of the arithmetic of the contract, including {IERC20-balanceOf} and {IERC20-transfer}."
      },
      "name()": {
        "details": "Returns the name of the token."
      },
      "symbol()": {
        "details": "Returns the symbol of the token, usually a shorter version of the name."
      },
      "totalSupply()": {
        "details": "See {IERC20-totalSupply}."
      },
      "transfer(address,uint256)": {
        "details": "See {IERC20-transfer}. Requirements: - `to` cannot be the zero address. - the caller must have a balance of at least `value`."
      },
      "transferFrom(address,address,uint256)": {
        "details": "See {IERC20-transferFrom}. Emits an {Approval} event indicating the updated allowance. This is not required by the EIP. See the note at the beginning of {ERC20}. NOTE: Does not update the allowance if the current allowance is the maximum `uint256`. Requirements: - `from` and `to` cannot be the zero address. - `from` must have a balance of at least `value`. - the caller must have allowance for ``from``'s tokens of at least `value`."
      }
    },
    "version": 1
  },
  "userdoc": {
    "kind": "user",
    "methods": {},
    "version": 1
  }
}