{
  "contractName": "CasinoNFT",
  "abi": [
    {
      "inputs": [
        {
          "internalType": "address",
          "name": "initialOwner",
          "type": "address"
        }
      ],
      "stateMutability": "nonpayable",
      "type": "constructor"
    },
    {
      "inputs": [
        {
          "internalType": "address",
          "name": "sender",
          "type": "address"
        },
        {
          "internalType": "uint256",
          "name": "tokenId",
          "type": "uint256"
        },
        {
          "internalType": "address",
          "name": "owner",
          "type": "address"
        }
      ],
      "name": "ERC721IncorrectOwner",
      "type": "error"
    },
    {
      "inputs": [
        {
          "internalType": "address",
          "name": "operator",
          "type": "address"
        },
        {
          "internalType": "uint256",
          "name": "tokenId",
          "type": "uint256"
        }
      ],
      "name": "ERC721InsufficientApproval",
      "type": "error"
    },
    {
      "inputs": [
        {
          "internalType": "address",
          "name": "approver",
          "type": "address"
        }
      ],
      "name": "ERC721InvalidApprover",
      "type": "error"
    },
    {
      "inputs": [
        {
          "internalType": "address",
          "name": "operator",
          "type": "address"
        }
      ],
      "name": "ERC721InvalidOperator",
      "type": "error"
    },
    {
      "inputs": [
        {
          "internalType": "address",
          "name": "owner",
          "type": "address"
        }
      ],
      "name": "ERC721InvalidOwner",
      "type": "error"
    },
    {
      "inputs": [
        {
          "internalType": "address",
          "name": "receiver",
          "type": "address"
        }
      ],
      "name": "ERC721InvalidReceiver",
      "type": "error"
    },
    {
      "inputs": [
        {
          "internalType": "address",
          "name": "sender",
          "type": "address"
        }
      ],
      "name": "ERC721InvalidSender",
      "type": "error"
    },
    {
      "inputs": [
        {
          "internalType": "uint256",
          "name": "tokenId",
          "type": "uint256"
        }
      ],
      "name": "ERC721NonexistentToken",
      "type": "error"
    },
    {
      "anonymous": false,
      "inputs": [
        {
          "indexed": true,
          "internalType": "address",
          "name": "owner",
          "type": "address"
        },
        {
          "indexed": true,
          "internalType": "address",
          "name": "approved",
          "type": "address"
        },
        {
          "indexed": true,
          "internalType": "uint256",
          "name": "tokenId",
          "type": "uint256"
        }
      ],
      "name": "Approval",
      "type": "event"
    },
    {
      "anonymous": false,
      "inputs": [
        {
          "indexed": true,
          "internalType": "address",
          "name": "owner",
          "type": "address"
        },
        {
          "indexed": true,
          "internalType": "address",
          "name": "operator",
          "type": "address"
        },
        {
          "indexed": false,
          "internalType": "bool",
          "name": "approved",
          "type": "bool"
        }
      ],
      "name": "ApprovalForAll",
      "type": "event"
    },
    {
      "anonymous": false,
      "inputs": [
        {
          "indexed": false,
          "internalType": "uint256",
          "name": "_fromTokenId",
          "type": "uint256"
        },
        {
          "indexed": false,
          "internalType": "uint256",
          "name": "_toTokenId",
          "type": "uint256"
        }
      ],
      "name": "BatchMetadataUpdate",
      "type": "event"
    },
    {
      "anonymous": false,
      "inputs": [
        {
          "indexed": false,
          "internalType": "uint256",
          "name": "_tokenId",
          "type": "uint256"
        }
      ],
      "name": "MetadataUpdate",
      "type": "event"
    },
    {
      "anonymous": false,
      "inputs": [
        {
          "indexed": true,
          "internalType": "address",
          "name": "from",
          "type": "address"
        },
        {
          "indexed": true,
          "internalType": "address",
          "name": "to",
          "type": "address"
        },
        {
          "indexed": true,
          "internalType": "uint256",
          "name": "tokenId",
          "type": "uint256"
        }
      ],
      "name": "Transfer",
      "type": "event"
    },
    {
      "inputs": [
        {
          "internalType": "address",
          "name": "to",
          "type": "address"
        },
        {
          "internalType": "uint256",
          "name": "tokenId",
          "type": "uint256"
        }
      ],
      "name": "approve",
      "outputs": [],
      "stateMutability": "nonpayable",
      "type": "function"
    },
    {
      "inputs": [],
      "name": "authorizedMinter",
      "outputs": [
        {
          "internalType": "address",
          "name": "",
          "type": "address"
        }
      ],
      "stateMutability": "view",
      "type": "function",
      "constant": true
    },
    {
      "inputs": [
        {
          "internalType": "address",
          "name": "owner",
          "type": "address"
        }
      ],
      "name": "balanceOf",
      "outputs": [
        {
          "internalType": "uint256",
          "name": "",
          "type": "uint256"
        }
      ],
      "stateMutability": "view",
      "type": "function",
      "constant": true
    },
    {
      "inputs": [
        {
          "internalType": "uint256",
          "name": "tokenId",
          "type": "uint256"
        }
      ],
      "name": "getApproved",
      "outputs": [
        {
          "internalType": "address",
          "name": "",
          "type": "address"
        }
      ],
      "stateMutability": "view",
      "type": "function",
      "constant": true
    },
    {
      "inputs": [
        {
          "internalType": "address",
          "name": "owner",
          "type": "address"
        },
        {
          "internalType": "address",
          "name": "operator",
          "type": "address"
        }
      ],
      "name": "isApprovedForAll",
      "outputs": [
        {
          "internalType": "bool",
          "name": "",
          "type": "bool"
        }
      ],
      "stateMutability": "view",
      "type": "function",
      "constant": true
    },
    {
      "inputs": [],
      "name": "name",
      "outputs": [
        {
          "internalType": "string",
          "name": "",
          "type": "string"
        }
      ],
      "stateMutability": "view",
      "type": "function",
      "constant": true
    },
    {
      "inputs": [],
      "name": "owner",
      "outputs": [
        {
          "internalType": "address",
          "name": "",
          "type": "address"
        }
      ],
      "stateMutability": "view",
      "type": "function",
      "constant": true
    },
    {
      "inputs": [
        {
          "internalType": "uint256",
          "name": "tokenId",
          "type": "uint256"
        }
      ],
      "name": "ownerOf",
      "outputs": [
        {
          "internalType": "address",
          "name": "",
          "type": "address"
        }
      ],
      "stateMutability": "view",
      "type": "function",
      "constant": true
    },
    {
      "inputs": [
        {
          "internalType": "address",
          "name": "from",
          "type": "address"
        },
        {
          "internalType": "address",
          "name": "to",
          "type": "address"
        },
        {
          "internalType": "uint256",
          "name": "tokenId",
          "type": "uint256"
        }
      ],
      "name": "safeTransferFrom",
      "outputs": [],
      "stateMutability": "nonpayable",
      "type": "function"
    },
    {
      "inputs": [
        {
          "internalType": "address",
          "name": "from",
          "type": "address"
        },
        {
          "internalType": "address",
          "name": "to",
          "type": "address"
        },
        {
          "internalType": "uint256",
          "name": "tokenId",
          "type": "uint256"
        },
        {
          "internalType": "bytes",
          "name": "data",
          "type": "bytes"
        }
      ],
      "name": "safeTransferFrom",
      "outputs": [],
      "stateMutability": "nonpayable",
      "type": "function"
    },
    {
      "inputs": [
        {
          "internalType": "address",
          "name": "operator",
          "type": "address"
        },
        {
          "internalType": "bool",
          "name": "approved",
          "type": "bool"
        }
      ],
      "name": "setApprovalForAll",
      "outputs": [],
      "stateMutability": "nonpayable",
      "type": "function"
    },
    {
      "inputs": [
        {
          "internalType": "bytes4",
          "name": "interfaceId",
          "type": "bytes4"
        }
      ],
      "name": "supportsInterface",
      "outputs": [
        {
          "internalType": "bool",
          "name": "",
          "type": "bool"
        }
      ],
      "stateMutability": "view",
      "type": "function",
      "constant": true
    },
    {
      "inputs": [],
      "name": "symbol",
      "outputs": [
        {
          "internalType": "string",
          "name": "",
          "type": "string"
        }
      ],
      "stateMutability": "view",
      "type": "function",
      "constant": true
    },
    {
      "inputs": [],
      "name": "tokenCounter",
      "outputs": [
        {
          "internalType": "uint256",
          "name": "",
          "type": "uint256"
        }
      ],
      "stateMutability": "view",
      "type": "function",
      "constant": true
    },
    {
      "inputs": [
        {
          "internalType": "uint256",
          "name": "",
          "type": "uint256"
        }
      ],
      "name": "tokenPrices",
      "outputs": [
        {
          "internalType": "uint256",
          "name": "",
          "type": "uint256"
        }
      ],
      "stateMutability": "view",
      "type": "function",
      "constant": true
    },
    {
      "inputs": [
        {
          "internalType": "uint256",
          "name": "tokenId",
          "type": "uint256"
        }
      ],
      "name": "tokenURI",
      "outputs": [
        {
          "internalType": "string",
          "name": "",
          "type": "string"
        }
      ],
      "stateMutability": "view",
      "type": "function",
      "constant": true
    },
    {
      "inputs": [
        {
          "internalType": "address",
          "name": "from",
          "type": "address"
        },
        {
          "internalType": "address",
          "name": "to",
          "type": "address"
        },
        {
          "internalType": "uint256",
          "name": "tokenId",
          "type": "uint256"
        }
      ],
      "name": "transferFrom",
      "outputs": [],
      "stateMutability": "nonpayable",
      "type": "function"
    },
    {
      "inputs": [
        {
          "internalType": "address",
          "name": "_minter",
          "type": "address"
        }
      ],
      "name": "setAuthorizedMinter",
      "outputs": [],
      "stateMutability": "nonpayable",
      "type": "function"
    },
    {
      "inputs": [
        {
          "internalType": "address",
          "name": "to",
          "type": "address"
        },
        {
          "internalType": "string",
          "name": "tokenURI",
          "type": "string"
        }
      ],
      "name": "mintNFT",
      "outputs": [],
      "stateMutability": "nonpayable",
      "type": "function"
    },
    {
      "inputs": [
        {
          "internalType": "uint256",
          "name": "tokenId",
          "type": "uint256"
        },
        {
          "internalType": "uint256",
          "name": "price",
          "type": "uint256"
        }
      ],
      "name": "setPrice",
      "outputs": [],
      "stateMutability": "nonpayable",
      "type": "function"
    },
    {
      "inputs": [
        {
          "internalType": "address",
          "name": "ownerNFT",
          "type": "address"
        },
        {
          "internalType": "address",
          "name": "erc1155ContractAddress",
          "type": "address"
        }
      ],
      "name": "_approveContract",
      "outputs": [],
      "stateMutability": "nonpayable",
      "type": "function"
    },
    {
      "inputs": [
        {
          "internalType": "uint256",
          "name": "tokenId",
          "type": "uint256"
        }
      ],
      "name": "buyNFT",
      "outputs": [],
      "stateMutability": "payable",
      "type": "function",
      "payable": true
    },
    {
      "inputs": [],
      "name": "withdraw",
      "outputs": [],
      "stateMutability": "nonpayable",
      "type": "function"
    }
  ],
  "bytecode": "0x608060405234801562000010575f80fd5b5060405162003cb438038062003cb4833981810160405281019062000036919062000aa8565b6040518060400160405280600981526020017f436173696e6f4e465400000000000000000000000000000000000000000000008152506040518060400160405280600481526020017f434e465400000000000000000000000000000000000000000000000000000000815250815f9081620000b2919062000d3c565b508060019081620000c4919062000d3c565b5050508060075f6101000a81548173ffffffffffffffffffffffffffffffffffffffff021916908373ffffffffffffffffffffffffffffffffffffffff16021790555060026008819055506200013a8160405180608001604052806043815260200162003c71604391396200016c60201b60201c565b620001658160405180608001604052806043815260200162003c2e604391396200016c60201b60201c565b5062000f0a565b5f6008549050620001848382620001b260201b60201c565b620001968183620002b360201b60201c565b6001600854620001a7919062000e4d565b600881905550505050565b5f73ffffffffffffffffffffffffffffffffffffffff168273ffffffffffffffffffffffffffffffffffffffff160362000225575f6040517f64a0ae920000000000000000000000000000000000000000000000000000000081526004016200021c919062000e98565b60405180910390fd5b5f6200023983835f6200031160201b60201c565b90505f73ffffffffffffffffffffffffffffffffffffffff168173ffffffffffffffffffffffffffffffffffffffff1614620002ae575f6040517f73c6ac6e000000000000000000000000000000000000000000000000000000008152600401620002a5919062000e98565b60405180910390fd5b505050565b8060065f8481526020019081526020015f209081620002d3919062000d3c565b507ff8e1a15aba9398e019f0b49df1a4fde98ee17ae345cb5f6b5e2c27f5033e8ce78260405162000305919062000ec4565b60405180910390a15050565b5f8062000324846200053760201b60201c565b90505f73ffffffffffffffffffffffffffffffffffffffff168373ffffffffffffffffffffffffffffffffffffffff16146200036e576200036d8184866200057060201b60201c565b5b5f73ffffffffffffffffffffffffffffffffffffffff168173ffffffffffffffffffffffffffffffffffffffff16146200040257620003b65f855f806200064160201b60201c565b600160035f8373ffffffffffffffffffffffffffffffffffffffff1673ffffffffffffffffffffffffffffffffffffffff1681526020019081526020015f205f82825403925050819055505b5f73ffffffffffffffffffffffffffffffffffffffff168573ffffffffffffffffffffffffffffffffffffffff16146200048257600160035f8773ffffffffffffffffffffffffffffffffffffffff1673ffffffffffffffffffffffffffffffffffffffff1681526020019081526020015f205f82825401925050819055505b8460025f8681526020019081526020015f205f6101000a81548173ffffffffffffffffffffffffffffffffffffffff021916908373ffffffffffffffffffffffffffffffffffffffff160217905550838573ffffffffffffffffffffffffffffffffffffffff168273ffffffffffffffffffffffffffffffffffffffff167fddf252ad1be2c89b69c2b068fc378daa952ba7f163c4a11628f55a4df523b3ef60405160405180910390a4809150509392505050565b5f60025f8381526020019081526020015f205f9054906101000a900473ffffffffffffffffffffffffffffffffffffffff169050919050565b620005838383836200081860201b60201c565b6200063c575f73ffffffffffffffffffffffffffffffffffffffff168373ffffffffffffffffffffffffffffffffffffffff1603620005fb57806040517f7e273289000000000000000000000000000000000000000000000000000000008152600401620005f2919062000ec4565b60405180910390fd5b81816040517f177e802f0000000000000000000000000000000000000000000000000000000081526004016200063392919062000edf565b60405180910390fd5b505050565b80806200067a57505f73ffffffffffffffffffffffffffffffffffffffff168273ffffffffffffffffffffffffffffffffffffffff1614155b15620007c3575f6200069284620008eb60201b60201c565b90505f73ffffffffffffffffffffffffffffffffffffffff168373ffffffffffffffffffffffffffffffffffffffff1614158015620006fd57508273ffffffffffffffffffffffffffffffffffffffff168173ffffffffffffffffffffffffffffffffffffffff1614155b80156200071957506200071781846200097c60201b60201c565b155b156200075e57826040517fa9fbf51f00000000000000000000000000000000000000000000000000000000815260040162000755919062000e98565b60405180910390fd5b8115620007c157838573ffffffffffffffffffffffffffffffffffffffff168273ffffffffffffffffffffffffffffffffffffffff167f8c5be1e5ebec7d5bd14f71427d1e84f3dd0314c0f7b2291e5b200ac8c7c3b92560405160405180910390a45b505b8360045f8581526020019081526020015f205f6101000a81548173ffffffffffffffffffffffffffffffffffffffff021916908373ffffffffffffffffffffffffffffffffffffffff16021790555050505050565b5f8073ffffffffffffffffffffffffffffffffffffffff168373ffffffffffffffffffffffffffffffffffffffff1614158015620008e257508273ffffffffffffffffffffffffffffffffffffffff168473ffffffffffffffffffffffffffffffffffffffff1614806200089a57506200089984846200097c60201b60201c565b5b80620008e157508273ffffffffffffffffffffffffffffffffffffffff16620008c98362000a0a60201b60201c565b73ffffffffffffffffffffffffffffffffffffffff16145b5b90509392505050565b5f80620008fe836200053760201b60201c565b90505f73ffffffffffffffffffffffffffffffffffffffff168173ffffffffffffffffffffffffffffffffffffffff16036200097357826040517f7e2732890000000000000000000000000000000000000000000000000000000081526004016200096a919062000ec4565b60405180910390fd5b80915050919050565b5f60055f8473ffffffffffffffffffffffffffffffffffffffff1673ffffffffffffffffffffffffffffffffffffffff1681526020019081526020015f205f8373ffffffffffffffffffffffffffffffffffffffff1673ffffffffffffffffffffffffffffffffffffffff1681526020019081526020015f205f9054906101000a900460ff16905092915050565b5f60045f8381526020019081526020015f205f9054906101000a900473ffffffffffffffffffffffffffffffffffffffff169050919050565b5f80fd5b5f73ffffffffffffffffffffffffffffffffffffffff82169050919050565b5f62000a728262000a47565b9050919050565b62000a848162000a66565b811462000a8f575f80fd5b50565b5f8151905062000aa28162000a79565b92915050565b5f6020828403121562000ac05762000abf62000a43565b5b5f62000acf8482850162000a92565b91505092915050565b5f81519050919050565b7f4e487b71000000000000000000000000000000000000000000000000000000005f52604160045260245ffd5b7f4e487b71000000000000000000000000000000000000000000000000000000005f52602260045260245ffd5b5f600282049050600182168062000b5457607f821691505b60208210810362000b6a5762000b6962000b0f565b5b50919050565b5f819050815f5260205f209050919050565b5f6020601f8301049050919050565b5f82821b905092915050565b5f6008830262000bce7fffffffffffffffffffffffffffffffffffffffffffffffffffffffffffffffff8262000b91565b62000bda868362000b91565b95508019841693508086168417925050509392505050565b5f819050919050565b5f819050919050565b5f62000c2462000c1e62000c188462000bf2565b62000bfb565b62000bf2565b9050919050565b5f819050919050565b62000c3f8362000c04565b62000c5762000c4e8262000c2b565b84845462000b9d565b825550505050565b5f90565b62000c6d62000c5f565b62000c7a81848462000c34565b505050565b5b8181101562000ca15762000c955f8262000c63565b60018101905062000c80565b5050565b601f82111562000cf05762000cba8162000b70565b62000cc58462000b82565b8101602085101562000cd5578190505b62000ced62000ce48562000b82565b83018262000c7f565b50505b505050565b5f82821c905092915050565b5f62000d125f198460080262000cf5565b1980831691505092915050565b5f62000d2c838362000d01565b9150826002028217905092915050565b62000d478262000ad8565b67ffffffffffffffff81111562000d635762000d6262000ae2565b5b62000d6f825462000b3c565b62000d7c82828562000ca5565b5f60209050601f83116001811462000db2575f841562000d9d578287015190505b62000da9858262000d1f565b86555062000e18565b601f19841662000dc28662000b70565b5f5b8281101562000deb5784890151825560018201915060208501945060208101905062000dc4565b8683101562000e0b578489015162000e07601f89168262000d01565b8355505b6001600288020188555050505b505050505050565b7f4e487b71000000000000000000000000000000000000000000000000000000005f52601160045260245ffd5b5f62000e598262000bf2565b915062000e668362000bf2565b925082820190508082111562000e815762000e8062000e20565b5b92915050565b62000e928162000a66565b82525050565b5f60208201905062000ead5f83018462000e87565b92915050565b62000ebe8162000bf2565b82525050565b5f60208201905062000ed95f83018462000eb3565b92915050565b5f60408201905062000ef45f83018562000e87565b62000f03602083018462000eb3565b9392505050565b612d168062000f185f395ff3fe60806040526004361061013f575f3560e01c806370a08231116100b5578063d082e3811161006e578063d082e38114610439578063e5afe3e614610463578063e985e9c51461049f578063eacabe14146104db578063eb0cd87d14610503578063f7d975771461052b5761013f565b806370a082311461031d5780638da5cb5b1461035957806395d89b4114610383578063a22cb465146103ad578063b88d4fde146103d5578063c87b56dd146103fd5761013f565b80631ba538cd116101075780631ba538cd1461023557806323b872dd1461025f5780633ccfd60b1461028757806342842e0e1461029d57806351ed8288146102c55780636352211e146102e15761013f565b806301ffc9a71461014357806306fdde031461017f578063081812fc146101a9578063095ea7b3146101e55780631928b7c31461020d575b5f80fd5b34801561014e575f80fd5b5061016960048036038101906101649190611f9d565b610553565b6040516101769190611fe2565b60405180910390f35b34801561018a575f80fd5b506101936105b3565b6040516101a09190612085565b60405180910390f35b3480156101b4575f80fd5b506101cf60048036038101906101ca91906120d8565b610642565b6040516101dc9190612142565b60405180910390f35b3480156101f0575f80fd5b5061020b60048036038101906102069190612185565b61065d565b005b348015610218575f80fd5b50610233600480360381019061022e91906121c3565b610673565b005b348015610240575f80fd5b50610249610745565b6040516102569190612142565b60405180910390f35b34801561026a575f80fd5b50610285600480360381019061028091906121ee565b61076a565b005b348015610292575f80fd5b5061029b610869565b005b3480156102a8575f80fd5b506102c360048036038101906102be91906121ee565b6109a6565b005b6102df60048036038101906102da91906120d8565b6109c5565b005b3480156102ec575f80fd5b50610307600480360381019061030291906120d8565b610b09565b6040516103149190612142565b60405180910390f35b348015610328575f80fd5b50610343600480360381019061033e91906121c3565b610b1a565b604051610350919061224d565b60405180910390f35b348015610364575f80fd5b5061036d610bd0565b60405161037a9190612142565b60405180910390f35b34801561038e575f80fd5b50610397610bf5565b6040516103a49190612085565b60405180910390f35b3480156103b8575f80fd5b506103d360048036038101906103ce9190612290565b610c85565b005b3480156103e0575f80fd5b506103fb60048036038101906103f691906123fa565b610c9b565b005b348015610408575f80fd5b50610423600480360381019061041e91906120d8565b610cb8565b6040516104309190612085565b60405180910390f35b348015610444575f80fd5b5061044d610dc3565b60405161045a919061224d565b60405180910390f35b34801561046e575f80fd5b50610489600480360381019061048491906120d8565b610dc9565b604051610496919061224d565b60405180910390f35b3480156104aa575f80fd5b506104c560048036038101906104c0919061247a565b610dde565b6040516104d29190611fe2565b60405180910390f35b3480156104e6575f80fd5b5061050160048036038101906104fc9190612556565b610e6c565b005b34801561050e575f80fd5b506105296004803603810190610524919061247a565b610ea0565b005b348015610536575f80fd5b50610551600480360381019061054c91906125b0565b610ebf565b005b5f634906490660e01b7bffffffffffffffffffffffffffffffffffffffffffffffffffffffff1916827bffffffffffffffffffffffffffffffffffffffffffffffffffffffff191614806105ac57506105ab82610f28565b5b9050919050565b60605f80546105c19061261b565b80601f01602080910402602001604051908101604052809291908181526020018280546105ed9061261b565b80156106385780601f1061060f57610100808354040283529160200191610638565b820191905f5260205f20905b81548152906001019060200180831161061b57829003601f168201915b5050505050905090565b5f61064c82611009565b506106568261108f565b9050919050565b61066f828261066a6110c8565b6110cf565b5050565b60075f9054906101000a900473ffffffffffffffffffffffffffffffffffffffff1673ffffffffffffffffffffffffffffffffffffffff163373ffffffffffffffffffffffffffffffffffffffff1614610702576040517f08c379a00000000000000000000000000000000000000000000000000000000081526004016106f990612695565b60405180910390fd5b80600a5f6101000a81548173ffffffffffffffffffffffffffffffffffffffff021916908373ffffffffffffffffffffffffffffffffffffffff16021790555050565b600a5f9054906101000a900473ffffffffffffffffffffffffffffffffffffffff1681565b5f73ffffffffffffffffffffffffffffffffffffffff168273ffffffffffffffffffffffffffffffffffffffff16036107da575f6040517f64a0ae920000000000000000000000000000000000000000000000000000000081526004016107d19190612142565b60405180910390fd5b5f6107ed83836107e86110c8565b6110e1565b90508373ffffffffffffffffffffffffffffffffffffffff168173ffffffffffffffffffffffffffffffffffffffff1614610863578382826040517f64283d7b00000000000000000000000000000000000000000000000000000000815260040161085a939291906126b3565b60405180910390fd5b50505050565b60075f9054906101000a900473ffffffffffffffffffffffffffffffffffffffff1673ffffffffffffffffffffffffffffffffffffffff163373ffffffffffffffffffffffffffffffffffffffff16146108f8576040517f08c379a00000000000000000000000000000000000000000000000000000000081526004016108ef90612695565b60405180910390fd5b5f4790505f811161093e576040517f08c379a000000000000000000000000000000000000000000000000000000000815260040161093590612732565b60405180910390fd5b60075f9054906101000a900473ffffffffffffffffffffffffffffffffffffffff1673ffffffffffffffffffffffffffffffffffffffff166108fc8290811502906040515f60405180830381858888f193505050501580156109a2573d5f803e3d5ffd5b5050565b6109c083838360405180602001604052805f815250610c9b565b505050565b5f60095f8381526020019081526020015f205490505f8111610a1c576040517f08c379a0000000000000000000000000000000000000000000000000000000008152600401610a139061279a565b60405180910390fd5b803414610a5e576040517f08c379a0000000000000000000000000000000000000000000000000000000008152600401610a5590612802565b60405180910390fd5b60075f9054906101000a900473ffffffffffffffffffffffffffffffffffffffff1673ffffffffffffffffffffffffffffffffffffffff166108fc3490811502906040515f60405180830381858888f19350505050158015610ac2573d5f803e3d5ffd5b50610aef60075f9054906101000a900473ffffffffffffffffffffffffffffffffffffffff1633846112ec565b5f60095f8481526020019081526020015f20819055505050565b5f610b1382611009565b9050919050565b5f8073ffffffffffffffffffffffffffffffffffffffff168273ffffffffffffffffffffffffffffffffffffffff1603610b8b575f6040517f89c62b64000000000000000000000000000000000000000000000000000000008152600401610b829190612142565b60405180910390fd5b60035f8373ffffffffffffffffffffffffffffffffffffffff1673ffffffffffffffffffffffffffffffffffffffff1681526020019081526020015f20549050919050565b60075f9054906101000a900473ffffffffffffffffffffffffffffffffffffffff1681565b606060018054610c049061261b565b80601f0160208091040260200160405190810160405280929190818152602001828054610c309061261b565b8015610c7b5780601f10610c5257610100808354040283529160200191610c7b565b820191905f5260205f20905b815481529060010190602001808311610c5e57829003601f168201915b5050505050905090565b610c97610c906110c8565b8383611454565b5050565b610ca684848461076a565b610cb2848484846115bd565b50505050565b6060610cc382611009565b505f60065f8481526020019081526020015f208054610ce19061261b565b80601f0160208091040260200160405190810160405280929190818152602001828054610d0d9061261b565b8015610d585780601f10610d2f57610100808354040283529160200191610d58565b820191905f5260205f20905b815481529060010190602001808311610d3b57829003601f168201915b505050505090505f610d6861176f565b90505f815103610d7c578192505050610dbe565b5f82511115610db0578082604051602001610d9892919061285a565b60405160208183030381529060405292505050610dbe565b610db984611785565b925050505b919050565b60085481565b6009602052805f5260405f205f915090505481565b5f60055f8473ffffffffffffffffffffffffffffffffffffffff1673ffffffffffffffffffffffffffffffffffffffff1681526020019081526020015f205f8373ffffffffffffffffffffffffffffffffffffffff1673ffffffffffffffffffffffffffffffffffffffff1681526020019081526020015f205f9054906101000a900460ff16905092915050565b5f6008549050610e7c83826117eb565b610e8681836118de565b6001600854610e9591906128aa565b600881905550505050565b610eaa8282610dde565b610ebb57610eba82826001611454565b5b5050565b5f82118015610ecf575060085482105b610f0e576040517f08c379a0000000000000000000000000000000000000000000000000000000008152600401610f0590612927565b60405180910390fd5b8060095f8481526020019081526020015f20819055505050565b5f7f80ac58cd000000000000000000000000000000000000000000000000000000007bffffffffffffffffffffffffffffffffffffffffffffffffffffffff1916827bffffffffffffffffffffffffffffffffffffffffffffffffffffffff19161480610ff257507f5b5e139f000000000000000000000000000000000000000000000000000000007bffffffffffffffffffffffffffffffffffffffffffffffffffffffff1916827bffffffffffffffffffffffffffffffffffffffffffffffffffffffff1916145b80611002575061100182611938565b5b9050919050565b5f80611014836119a1565b90505f73ffffffffffffffffffffffffffffffffffffffff168173ffffffffffffffffffffffffffffffffffffffff160361108657826040517f7e27328900000000000000000000000000000000000000000000000000000000815260040161107d919061224d565b60405180910390fd5b80915050919050565b5f60045f8381526020019081526020015f205f9054906101000a900473ffffffffffffffffffffffffffffffffffffffff169050919050565b5f33905090565b6110dc83838360016119da565b505050565b5f806110ec846119a1565b90505f73ffffffffffffffffffffffffffffffffffffffff168373ffffffffffffffffffffffffffffffffffffffff161461112d5761112c818486611b99565b5b5f73ffffffffffffffffffffffffffffffffffffffff168173ffffffffffffffffffffffffffffffffffffffff16146111b85761116c5f855f806119da565b600160035f8373ffffffffffffffffffffffffffffffffffffffff1673ffffffffffffffffffffffffffffffffffffffff1681526020019081526020015f205f82825403925050819055505b5f73ffffffffffffffffffffffffffffffffffffffff168573ffffffffffffffffffffffffffffffffffffffff161461123757600160035f8773ffffffffffffffffffffffffffffffffffffffff1673ffffffffffffffffffffffffffffffffffffffff1681526020019081526020015f205f82825401925050819055505b8460025f8681526020019081526020015f205f6101000a81548173ffffffffffffffffffffffffffffffffffffffff021916908373ffffffffffffffffffffffffffffffffffffffff160217905550838573ffffffffffffffffffffffffffffffffffffffff168273ffffffffffffffffffffffffffffffffffffffff167fddf252ad1be2c89b69c2b068fc378daa952ba7f163c4a11628f55a4df523b3ef60405160405180910390a4809150509392505050565b5f73ffffffffffffffffffffffffffffffffffffffff168273ffffffffffffffffffffffffffffffffffffffff160361135c575f6040517f64a0ae920000000000000000000000000000000000000000000000000000000081526004016113539190612142565b60405180910390fd5b5f61136883835f6110e1565b90505f73ffffffffffffffffffffffffffffffffffffffff168173ffffffffffffffffffffffffffffffffffffffff16036113da57816040517f7e2732890000000000000000000000000000000000000000000000000000000081526004016113d1919061224d565b60405180910390fd5b8373ffffffffffffffffffffffffffffffffffffffff168173ffffffffffffffffffffffffffffffffffffffff161461144e578382826040517f64283d7b000000000000000000000000000000000000000000000000000000008152600401611445939291906126b3565b60405180910390fd5b50505050565b5f73ffffffffffffffffffffffffffffffffffffffff168273ffffffffffffffffffffffffffffffffffffffff16036114c457816040517f5b08ba180000000000000000000000000000000000000000000000000000000081526004016114bb9190612142565b60405180910390fd5b8060055f8573ffffffffffffffffffffffffffffffffffffffff1673ffffffffffffffffffffffffffffffffffffffff1681526020019081526020015f205f8473ffffffffffffffffffffffffffffffffffffffff1673ffffffffffffffffffffffffffffffffffffffff1681526020019081526020015f205f6101000a81548160ff0219169083151502179055508173ffffffffffffffffffffffffffffffffffffffff168373ffffffffffffffffffffffffffffffffffffffff167f17307eab39ab6107e8899845ad3d59bd9653f200f220920489ca2b5937696c31836040516115b09190611fe2565b60405180910390a3505050565b5f8373ffffffffffffffffffffffffffffffffffffffff163b1115611769578273ffffffffffffffffffffffffffffffffffffffff1663150b7a026116006110c8565b8685856040518563ffffffff1660e01b81526004016116229493929190612997565b6020604051808303815f875af192505050801561165d57506040513d601f19601f8201168201806040525081019061165a91906129f5565b60015b6116de573d805f811461168b576040519150601f19603f3d011682016040523d82523d5f602084013e611690565b606091505b505f8151036116d657836040517f64a0ae920000000000000000000000000000000000000000000000000000000081526004016116cd9190612142565b60405180910390fd5b805181602001fd5b63150b7a0260e01b7bffffffffffffffffffffffffffffffffffffffffffffffffffffffff1916817bffffffffffffffffffffffffffffffffffffffffffffffffffffffff19161461176757836040517f64a0ae9200000000000000000000000000000000000000000000000000000000815260040161175e9190612142565b60405180910390fd5b505b50505050565b606060405180602001604052805f815250905090565b606061179082611009565b505f61179a61176f565b90505f8151116117b85760405180602001604052805f8152506117e3565b806117c284611c5c565b6040516020016117d392919061285a565b6040516020818303038152906040525b915050919050565b5f73ffffffffffffffffffffffffffffffffffffffff168273ffffffffffffffffffffffffffffffffffffffff160361185b575f6040517f64a0ae920000000000000000000000000000000000000000000000000000000081526004016118529190612142565b60405180910390fd5b5f61186783835f6110e1565b90505f73ffffffffffffffffffffffffffffffffffffffff168173ffffffffffffffffffffffffffffffffffffffff16146118d9575f6040517f73c6ac6e0000000000000000000000000000000000000000000000000000000081526004016118d09190612142565b60405180910390fd5b505050565b8060065f8481526020019081526020015f2090816118fc9190612bbd565b507ff8e1a15aba9398e019f0b49df1a4fde98ee17ae345cb5f6b5e2c27f5033e8ce78260405161192c919061224d565b60405180910390a15050565b5f7f01ffc9a7000000000000000000000000000000000000000000000000000000007bffffffffffffffffffffffffffffffffffffffffffffffffffffffff1916827bffffffffffffffffffffffffffffffffffffffffffffffffffffffff1916149050919050565b5f60025f8381526020019081526020015f205f9054906101000a900473ffffffffffffffffffffffffffffffffffffffff169050919050565b8080611a1257505f73ffffffffffffffffffffffffffffffffffffffff168273ffffffffffffffffffffffffffffffffffffffff1614155b15611b44575f611a2184611009565b90505f73ffffffffffffffffffffffffffffffffffffffff168373ffffffffffffffffffffffffffffffffffffffff1614158015611a8b57508273ffffffffffffffffffffffffffffffffffffffff168173ffffffffffffffffffffffffffffffffffffffff1614155b8015611a9e5750611a9c8184610dde565b155b15611ae057826040517fa9fbf51f000000000000000000000000000000000000000000000000000000008152600401611ad79190612142565b60405180910390fd5b8115611b4257838573ffffffffffffffffffffffffffffffffffffffff168273ffffffffffffffffffffffffffffffffffffffff167f8c5be1e5ebec7d5bd14f71427d1e84f3dd0314c0f7b2291e5b200ac8c7c3b92560405160405180910390a45b505b8360045f8581526020019081526020015f205f6101000a81548173ffffffffffffffffffffffffffffffffffffffff021916908373ffffffffffffffffffffffffffffffffffffffff16021790555050505050565b611ba4838383611d26565b611c57575f73ffffffffffffffffffffffffffffffffffffffff168373ffffffffffffffffffffffffffffffffffffffff1603611c1857806040517f7e273289000000000000000000000000000000000000000000000000000000008152600401611c0f919061224d565b60405180910390fd5b81816040517f177e802f000000000000000000000000000000000000000000000000000000008152600401611c4e929190612c8c565b60405180910390fd5b505050565b60605f6001611c6a84611de6565b0190505f8167ffffffffffffffff811115611c8857611c876122d6565b5b6040519080825280601f01601f191660200182016040528015611cba5781602001600182028036833780820191505090505b5090505f82602001820190505b600115611d1b578080600190039150507f3031323334353637383961626364656600000000000000000000000000000000600a86061a8153600a8581611d1057611d0f612cb3565b5b0494505f8503611cc7575b819350505050919050565b5f8073ffffffffffffffffffffffffffffffffffffffff168373ffffffffffffffffffffffffffffffffffffffff1614158015611ddd57508273ffffffffffffffffffffffffffffffffffffffff168473ffffffffffffffffffffffffffffffffffffffff161480611d9e5750611d9d8484610dde565b5b80611ddc57508273ffffffffffffffffffffffffffffffffffffffff16611dc48361108f565b73ffffffffffffffffffffffffffffffffffffffff16145b5b90509392505050565b5f805f90507a184f03e93ff9f4daa797ed6e38ed64bf6a1f0100000000000000008310611e42577a184f03e93ff9f4daa797ed6e38ed64bf6a1f0100000000000000008381611e3857611e37612cb3565b5b0492506040810190505b6d04ee2d6d415b85acef81000000008310611e7f576d04ee2d6d415b85acef81000000008381611e7557611e74612cb3565b5b0492506020810190505b662386f26fc100008310611eae57662386f26fc100008381611ea457611ea3612cb3565b5b0492506010810190505b6305f5e1008310611ed7576305f5e1008381611ecd57611ecc612cb3565b5b0492506008810190505b6127108310611efc576127108381611ef257611ef1612cb3565b5b0492506004810190505b60648310611f1f5760648381611f1557611f14612cb3565b5b0492506002810190505b600a8310611f2e576001810190505b80915050919050565b5f604051905090565b5f80fd5b5f80fd5b5f7fffffffff0000000000000000000000000000000000000000000000000000000082169050919050565b611f7c81611f48565b8114611f86575f80fd5b50565b5f81359050611f9781611f73565b92915050565b5f60208284031215611fb257611fb1611f40565b5b5f611fbf84828501611f89565b91505092915050565b5f8115159050919050565b611fdc81611fc8565b82525050565b5f602082019050611ff55f830184611fd3565b92915050565b5f81519050919050565b5f82825260208201905092915050565b5f5b83811015612032578082015181840152602081019050612017565b5f8484015250505050565b5f601f19601f8301169050919050565b5f61205782611ffb565b6120618185612005565b9350612071818560208601612015565b61207a8161203d565b840191505092915050565b5f6020820190508181035f83015261209d818461204d565b905092915050565b5f819050919050565b6120b7816120a5565b81146120c1575f80fd5b50565b5f813590506120d2816120ae565b92915050565b5f602082840312156120ed576120ec611f40565b5b5f6120fa848285016120c4565b91505092915050565b5f73ffffffffffffffffffffffffffffffffffffffff82169050919050565b5f61212c82612103565b9050919050565b61213c81612122565b82525050565b5f6020820190506121555f830184612133565b92915050565b61216481612122565b811461216e575f80fd5b50565b5f8135905061217f8161215b565b92915050565b5f806040838503121561219b5761219a611f40565b5b5f6121a885828601612171565b92505060206121b9858286016120c4565b9150509250929050565b5f602082840312156121d8576121d7611f40565b5b5f6121e584828501612171565b91505092915050565b5f805f6060848603121561220557612204611f40565b5b5f61221286828701612171565b935050602061222386828701612171565b9250506040612234868287016120c4565b9150509250925092565b612247816120a5565b82525050565b5f6020820190506122605f83018461223e565b92915050565b61226f81611fc8565b8114612279575f80fd5b50565b5f8135905061228a81612266565b92915050565b5f80604083850312156122a6576122a5611f40565b5b5f6122b385828601612171565b92505060206122c48582860161227c565b9150509250929050565b5f80fd5b5f80fd5b7f4e487b71000000000000000000000000000000000000000000000000000000005f52604160045260245ffd5b61230c8261203d565b810181811067ffffffffffffffff8211171561232b5761232a6122d6565b5b80604052505050565b5f61233d611f37565b90506123498282612303565b919050565b5f67ffffffffffffffff821115612368576123676122d6565b5b6123718261203d565b9050602081019050919050565b828183375f83830152505050565b5f61239e6123998461234e565b612334565b9050828152602081018484840111156123ba576123b96122d2565b5b6123c584828561237e565b509392505050565b5f82601f8301126123e1576123e06122ce565b5b81356123f184826020860161238c565b91505092915050565b5f805f806080858703121561241257612411611f40565b5b5f61241f87828801612171565b945050602061243087828801612171565b9350506040612441878288016120c4565b925050606085013567ffffffffffffffff81111561246257612461611f44565b5b61246e878288016123cd565b91505092959194509250565b5f80604083850312156124905761248f611f40565b5b5f61249d85828601612171565b92505060206124ae85828601612171565b9150509250929050565b5f67ffffffffffffffff8211156124d2576124d16122d6565b5b6124db8261203d565b9050602081019050919050565b5f6124fa6124f5846124b8565b612334565b905082815260208101848484011115612516576125156122d2565b5b61252184828561237e565b509392505050565b5f82601f83011261253d5761253c6122ce565b5b813561254d8482602086016124e8565b91505092915050565b5f806040838503121561256c5761256b611f40565b5b5f61257985828601612171565b925050602083013567ffffffffffffffff81111561259a57612599611f44565b5b6125a685828601612529565b9150509250929050565b5f80604083850312156125c6576125c5611f40565b5b5f6125d3858286016120c4565b92505060206125e4858286016120c4565b9150509250929050565b7f4e487b71000000000000000000000000000000000000000000000000000000005f52602260045260245ffd5b5f600282049050600182168061263257607f821691505b602082108103612645576126446125ee565b5b50919050565b7f43616c6c6572206973206e6f7420746865206f776e65720000000000000000005f82015250565b5f61267f601783612005565b915061268a8261264b565b602082019050919050565b5f6020820190508181035f8301526126ac81612673565b9050919050565b5f6060820190506126c65f830186612133565b6126d3602083018561223e565b6126e06040830184612133565b949350505050565b7f4e6f2066756e647320746f2077697468647261770000000000000000000000005f82015250565b5f61271c601483612005565b9150612727826126e8565b602082019050919050565b5f6020820190508181035f83015261274981612710565b9050919050565b7f4e4654206e6f7420666f722073616c65000000000000000000000000000000005f82015250565b5f612784601083612005565b915061278f82612750565b602082019050919050565b5f6020820190508181035f8301526127b181612778565b9050919050565b7f496e636f72726563742076616c756500000000000000000000000000000000005f82015250565b5f6127ec600f83612005565b91506127f7826127b8565b602082019050919050565b5f6020820190508181035f830152612819816127e0565b9050919050565b5f81905092915050565b5f61283482611ffb565b61283e8185612820565b935061284e818560208601612015565b80840191505092915050565b5f612865828561282a565b9150612871828461282a565b91508190509392505050565b7f4e487b71000000000000000000000000000000000000000000000000000000005f52601160045260245ffd5b5f6128b4826120a5565b91506128bf836120a5565b92508282019050808211156128d7576128d661287d565b5b92915050565b7f546f6b656e20646f6573206e6f742065786973740000000000000000000000005f82015250565b5f612911601483612005565b915061291c826128dd565b602082019050919050565b5f6020820190508181035f83015261293e81612905565b9050919050565b5f81519050919050565b5f82825260208201905092915050565b5f61296982612945565b612973818561294f565b9350612983818560208601612015565b61298c8161203d565b840191505092915050565b5f6080820190506129aa5f830187612133565b6129b76020830186612133565b6129c4604083018561223e565b81810360608301526129d6818461295f565b905095945050505050565b5f815190506129ef81611f73565b92915050565b5f60208284031215612a0a57612a09611f40565b5b5f612a17848285016129e1565b91505092915050565b5f819050815f5260205f209050919050565b5f6020601f8301049050919050565b5f82821b905092915050565b5f60088302612a7c7fffffffffffffffffffffffffffffffffffffffffffffffffffffffffffffffff82612a41565b612a868683612a41565b95508019841693508086168417925050509392505050565b5f819050919050565b5f612ac1612abc612ab7846120a5565b612a9e565b6120a5565b9050919050565b5f819050919050565b612ada83612aa7565b612aee612ae682612ac8565b848454612a4d565b825550505050565b5f90565b612b02612af6565b612b0d818484612ad1565b505050565b5b81811015612b3057612b255f82612afa565b600181019050612b13565b5050565b601f821115612b7557612b4681612a20565b612b4f84612a32565b81016020851015612b5e578190505b612b72612b6a85612a32565b830182612b12565b50505b505050565b5f82821c905092915050565b5f612b955f1984600802612b7a565b1980831691505092915050565b5f612bad8383612b86565b9150826002028217905092915050565b612bc682611ffb565b67ffffffffffffffff811115612bdf57612bde6122d6565b5b612be9825461261b565b612bf4828285612b34565b5f60209050601f831160018114612c25575f8415612c13578287015190505b612c1d8582612ba2565b865550612c84565b601f198416612c3386612a20565b5f5b82811015612c5a57848901518255600182019150602085019450602081019050612c35565b86831015612c775784890151612c73601f891682612b86565b8355505b6001600288020188555050505b505050505050565b5f604082019050612c9f5f830185612133565b612cac602083018461223e565b9392505050565b7f4e487b71000000000000000000000000000000000000000000000000000000005f52601260045260245ffdfea26469706673582212209376c05277cb1268cdeaf32f0b24981d3213c1af4c86134221ed56f80ce2bc7264736f6c6343000814003368747470733a2f2f697066732e696f2f697066732f516d5341727848684335766b564b4231696a4161754b686232653442553248754c64486b47736f7762787136547268747470733a2f2f697066732e696f2f697066732f516d57785335525a626e4756565443576d43434658707966414677524a584741757068387278643756356d384d66",
  "immutableReferences": {},
  "source": "// SPDX-License-Identifier: MIT\r\npragma solidity ^0.8.20;\r\n\r\nimport \"@openzeppelin/contracts/token/ERC721/extensions/ERC721URIStorage.sol\";\r\nimport \"@openzeppelin/contracts/access/Ownable.sol\";\r\n\r\n// import \"@openzeppelin/contracts/utils/math/SafeMath.sol\";\r\n\r\ncontract CasinoNFT is ERC721URIStorage {\r\n    // using SafeMath for uint256;\r\n    address public owner;\r\n    uint256 public tokenCounter;\r\n    mapping(uint256 => uint256) public tokenPrices;\r\n    address public authorizedMinter;\r\n\r\n    constructor(address initialOwner) ERC721(\"CasinoNFT\", \"CNFT\") {\r\n        owner = initialOwner;\r\n        tokenCounter = 2;\r\n        mintNFT(\r\n            initialOwner,\r\n            \"https://ipfs.io/ipfs/QmWxS5RZbnGVVTCWmCCFXpyfAFwRJXGAuph8rxd7V5m8Mf\"\r\n        );\r\n        mintNFT(\r\n            initialOwner,\r\n            \"https://ipfs.io/ipfs/QmSArxHhC5vkVKB1ijAauKhb2e4BU2HuLdHkGsowbxq6Tr\"\r\n        );\r\n    }\r\n\r\n    modifier onlyOwner() {\r\n        require(msg.sender == owner, \"Caller is not the owner\");\r\n        _;\r\n    }\r\n\r\n    function setAuthorizedMinter(address _minter) public onlyOwner {\r\n        authorizedMinter = _minter;\r\n    }\r\n\r\n    function mintNFT(address to, string memory tokenURI) public {\r\n        uint256 tokenId = tokenCounter;\r\n        _mint(to, tokenId);\r\n        _setTokenURI(tokenId, tokenURI);\r\n        tokenCounter = tokenCounter + 1;\r\n    }\r\n\r\n    function setPrice(uint256 tokenId, uint256 price) public {\r\n        // require(msg.sender == owner() || msg.sender == authorizedMinter, \"Not authorized to set price\");\r\n        require(tokenId > 0 && tokenId < tokenCounter, \"Token does not exist\");\r\n        tokenPrices[tokenId] = price;\r\n    }\r\n\r\n    function _approveContract(\r\n        address ownerNFT,\r\n        address erc1155ContractAddress\r\n    ) external {\r\n        if (!isApprovedForAll(ownerNFT, erc1155ContractAddress)) {\r\n            _setApprovalForAll(ownerNFT, erc1155ContractAddress, true);\r\n        }\r\n    }\r\n\r\n    function buyNFT(uint256 tokenId) public payable {\r\n        uint256 price = tokenPrices[tokenId];\r\n        require(price > 0, \"NFT not for sale\");\r\n        require(msg.value == price, \"Incorrect value\");\r\n        payable(owner).transfer(msg.value);\r\n        _transfer(owner, msg.sender, tokenId);\r\n\r\n        tokenPrices[tokenId] = 0;\r\n    }\r\n\r\n    function withdraw() public onlyOwner {\r\n        uint256 balance = address(this).balance;\r\n        require(balance > 0, \"No funds to withdraw\");\r\n        payable(owner).transfer(balance);\r\n    }\r\n}\r\n",
  "sourcePath": "/Users/ajaym1/casino-dapp/casino-contract/contracts/CasinoNFT.sol",
  "compiler": {
    "name": "solc",
    "version": "0.8.20+commit.a1b79de6.Emscripten.clang"
  },
  "schemaVersion": "3.4.16",
  "updatedAt": "2023-12-04T05:42:37.521Z",
  "networkType": "ethereum",
  "devdoc": {
    "errors": {
      "ERC721IncorrectOwner(address,uint256,address)": [
        {
          "details": "Indicates an error related to the ownership over a particular token. Used in transfers.",
          "params": {
            "owner": "Address of the current owner of a token.",
            "sender": "Address whose tokens are being transferred.",
            "tokenId": "Identifier number of a token."
          }
        }
      ],
      "ERC721InsufficientApproval(address,uint256)": [
        {
          "details": "Indicates a failure with the `operator`s approval. Used in transfers.",
          "params": {
            "operator": "Address that may be allowed to operate on tokens without being their owner.",
            "tokenId": "Identifier number of a token."
          }
        }
      ],
      "ERC721InvalidApprover(address)": [
        {
          "details": "Indicates a failure with the `approver` of a token to be approved. Used in approvals.",
          "params": {
            "approver": "Address initiating an approval operation."
          }
        }
      ],
      "ERC721InvalidOperator(address)": [
        {
          "details": "Indicates a failure with the `operator` to be approved. Used in approvals.",
          "params": {
            "operator": "Address that may be allowed to operate on tokens without being their owner."
          }
        }
      ],
      "ERC721InvalidOwner(address)": [
        {
          "details": "Indicates that an address can't be an owner. For example, `address(0)` is a forbidden owner in EIP-20. Used in balance queries.",
          "params": {
            "owner": "Address of the current owner of a token."
          }
        }
      ],
      "ERC721InvalidReceiver(address)": [
        {
          "details": "Indicates a failure with the token `receiver`. Used in transfers.",
          "params": {
            "receiver": "Address to which tokens are being transferred."
          }
        }
      ],
      "ERC721InvalidSender(address)": [
        {
          "details": "Indicates a failure with the token `sender`. Used in transfers.",
          "params": {
            "sender": "Address whose tokens are being transferred."
          }
        }
      ],
      "ERC721NonexistentToken(uint256)": [
        {
          "details": "Indicates a `tokenId` whose `owner` is the zero address.",
          "params": {
            "tokenId": "Identifier number of a token."
          }
        }
      ]
    },
    "events": {
      "Approval(address,address,uint256)": {
        "details": "Emitted when `owner` enables `approved` to manage the `tokenId` token."
      },
      "ApprovalForAll(address,address,bool)": {
        "details": "Emitted when `owner` enables or disables (`approved`) `operator` to manage all of its assets."
      },
      "BatchMetadataUpdate(uint256,uint256)": {
        "details": "This event emits when the metadata of a range of tokens is changed. So that the third-party platforms such as NFT market could timely update the images and related attributes of the NFTs."
      },
      "MetadataUpdate(uint256)": {
        "details": "This event emits when the metadata of a token is changed. So that the third-party platforms such as NFT market could timely update the images and related attributes of the NFT."
      },
      "Transfer(address,address,uint256)": {
        "details": "Emitted when `tokenId` token is transferred from `from` to `to`."
      }
    },
    "kind": "dev",
    "methods": {
      "approve(address,uint256)": {
        "details": "See {IERC721-approve}."
      },
      "balanceOf(address)": {
        "details": "See {IERC721-balanceOf}."
      },
      "getApproved(uint256)": {
        "details": "See {IERC721-getApproved}."
      },
      "isApprovedForAll(address,address)": {
        "details": "See {IERC721-isApprovedForAll}."
      },
      "name()": {
        "details": "See {IERC721Metadata-name}."
      },
      "ownerOf(uint256)": {
        "details": "See {IERC721-ownerOf}."
      },
      "safeTransferFrom(address,address,uint256)": {
        "details": "See {IERC721-safeTransferFrom}."
      },
      "safeTransferFrom(address,address,uint256,bytes)": {
        "details": "See {IERC721-safeTransferFrom}."
      },
      "setApprovalForAll(address,bool)": {
        "details": "See {IERC721-setApprovalForAll}."
      },
      "supportsInterface(bytes4)": {
        "details": "See {IERC165-supportsInterface}"
      },
      "symbol()": {
        "details": "See {IERC721Metadata-symbol}."
      },
      "tokenURI(uint256)": {
        "details": "See {IERC721Metadata-tokenURI}."
      },
      "transferFrom(address,address,uint256)": {
        "details": "See {IERC721-transferFrom}."
      }
    },
    "version": 1
  },
  "userdoc": {
    "kind": "user",
    "methods": {},
    "version": 1
  }
}